:1000000000800020A10000009D000000F100000021
:100010009D0000009D0000009D0000009D0000006C
:100020009D0000009D000000583A00009D00000067
:100030009D0000008C3A00009D0000009D00000023
:1000400010B5054C237833B9044B13B1044800E0D4
:1000500000BF0123237010BD10010020000000002C
:10006000F03C000008B5034B1BB10349034800E016
:1000700000BF08BD0000000014010020F03C00009B
:10008000044B054A9A60D3F8882042F47002C3F802
:100090008820704700ED00E000000000FEE700004F
:1000A00008B5FFF7EDFF00F071F80A4A0A4B0B495B
:1000B0008B4206D300210A4B0A4A934206D300F032
:1000C0001BF852F8040F43F8040BF1E743F8041B44
:1000D000F3E700BFF03C0000000100201001002009
:1000E00010010020AC4E002001F050BD01F0A6BD73
:1000F0004FF4017002F04ABD204B13B51B68C3F3E7
:100100000743012B10D11E4B4FF48022596E41F250
:10011000640049034FF0040458BF42F264011A50CE
:100120001848046058BF5A504FF040234FF4006203
:100130001A67D3F88420D206FBD4FFF7D5FF02F06C
:100140001EFD02F0EBFA30B940F2012002F01EFD74
:100150004FF401700AE00C4B0193019B002B0ADC69
:1001600040F205439842F3D140F2032002F00EFD25
:10017000002002B010BD019B013BEDE70080E00FC5
:10018000008000402020014000350C0008B54FF0F1
:100190004023D3F894305B060BD4012344F20402CD
:1001A0001268013214D1BDE808404FF4027002F029
:1001B000DFBC02F003FDA0F2022080B20728ECD8D9
:1001C000012303FA00F010F0C90F18BF0023E5E780
:1001D00093B14FF4804002F0F9FB0028E3D04FF4D4
:1001E0008043064A93601846016881F3088881F3CA
:1001F000098840688746FEE708BD00BF00ED00E0C3
:100200000020704730B541F264030825094C0144D1
:10021000E55001240025084B5C609D601A611A4678
:10022000DC60884201D1586A30BD10F8014B14627D
:10023000F7E700BF00800040008008402DE9F04152
:10024000B0B0369C0646002867D0002965D0002A49
:1002500063D0002B61D0002C5FD041F268004FF4D6
:1002600000572F4D01F120082F5003252D4820AFB6
:10027000056000200D46BE4609900C900F90F44694
:10028000286869680835ACE803004545E646F6D1BC
:100290000DF1A00C02F1200E65461068516808327D
:1002A00003C57245AC46F7D10DF1400C654603F12C
:1002B000200E2A4618685968083303C2734515464C
:1002C000F7D1234618AC03F1200522461868596877
:1002D000083303C2AB421446F7D140230893CDE95B
:1002E0000A7320230AAA0E9303AB07CACDF81CC0D9
:1002F0000D9683E8070007AB93E807008DE8070039
:100300000DAB0ECB084801F03DFE002840F2046022
:1003100008BF002030B0BDE8F08140F20160F9E78D
:100320000080004060920040C03B00004FF400514C
:1003300041F26802074B10B599500222044603F5BA
:1003400093531A6002F020F92046BDE810400021C6
:1003500002F044B90080004002F04AB9014602F0C0
:1003600049B9000070B50D4C0D4E0E4DF36913EAFE
:10037000050208D00C4A1A40002A14BF6FF0010091
:100380004FF0FF3070BD03408B4204D0013CEDD1F3
:100390006FF00200F6E71046F4E700BF8096980081
:1003A00000000340060001000200010070B5134C7C
:1003B0006061E06943071DD40E1D0968151FA16126
:1003C0005DB90423294623612120FFF7CBFF58B9EB
:1003D000BDE870402120FFF7C5BF08210846FFF7A0
:1003E000C1FF10B10423236170BD56F8043B043DE6
:1003F000A361E5E74FF0FF30F6E700BF00000340E0
:1004000038B54FF4003141F26803104A104CD15016
:1004100041F67133E5690122E36341F20C03E250D6
:100420000223606100212361212005F48035FFF75C
:1004300099FF18B901462120FFF794FF42F20C03FF
:100440000122E2500DB10023E36338BD008000407B
:10045000000003402DE9F84341F2680388464FF459
:1004600000311546174A0646D15041F67132164BF7
:100470000121DF69DA6341F20C02DFF8509007F4E2
:100480008037995055B9284642F20C0201210E4B93
:1004900099500FB10022DA63BDE8F88306F50054E5
:1004A00004EA0904A41BAC4228BF2C46414622465C
:1004B0003046FFF77BFF0028E6D12644A0442D1BE1
:1004C000E0E700BF008000400000034000E0FFFFC5
:1004D000C369032B9FBF00EB83020133D160C3616B
:1004E00070470000C1692DE9F043042967D84FF433
:1004F000803441F26403334A334D566E334FD45047
:10050000334BC5F80036C5F80476F5035CBF42F2FC
:10051000640554512F4A304E1A60024652F80C4B73
:100520005C600024A14222D1214600226FF0030822
:10053000456815BB1346264A43EA04639360136873
:1005400050689268434053408900234A8819824288
:1005500031D17350BFF34F8F2049214BCA6802F449
:10056000E0621343CB60BFF34F8F00BFFDE752F84B
:10057000043B46F824300134D4E72B68A1EB020E8B
:1005800008FB023C134606EB8E0E881AAF68A3EBFD
:100590000209C7F399074F4500EB030105D86A68C4
:1005A000012AC8D06D681A46C3E75CF823104EF8DC
:1005B00023100133EAE752F8044B6340C7E7BDE874
:1005C000F08300BF0080004000C00740004E00A044
:1005D000004C00A0DEC0ECE50C4C00A000ED00E0FB
:1005E0000400FA05154B4FF48032586E41F2640155
:1005F000C00358BF42F2640010B55A501049D1F8F8
:10060000041658BF1A500A680E4B9A4213D10B6950
:100610000533B3F5007F0ED2002214469A4205D36B
:1006200051F82300031B5842584110BD51F82200D5
:1006300001324440F2E70020F7E700BF00800040AD
:1006400000C00740DEC0ECE538B50F4B4FF48032F8
:10065000596E044641F26400C90358BF42F2640176
:100660001A500A48D0F8045658BF5A5034B1FFF710
:10067000B9FF30B100206B68236038BD4FF4E02033
:10068000FBE74FF47E00F8E70080004000C0074021
:100690000B4B4FF48032596E41F26400C90358BFCE
:1006A00042F2640110B51A500648D0F8044658BF0B
:1006B0005A50FFF797FF10B1A068C0F3C05010BDAB
:1006C0000080004000C007400C4B4FF48032596E50
:1006D00041F26400C90358BF42F2640110B51A50D8
:1006E0000748D0F8044658BF5A50FFF7D1FF08B169
:1006F000E06810BD4FF47E00FBE700BF00800040C3
:1007000000C00740F8B5254B4FF48032596E41F2D6
:100710006404C90358BF42F264011A51204CD4F852
:10072000045658BF5A508468FFF7B2FF60B32A6975
:1007300005F1140151F82230DB4341F82230A8685A
:1007400010F4702011D0A86800F47020F8BD0023C8
:100750002768A56801EB800CC5F39905AB4200EB57
:1007600003060DD0964205D3304684B19042EED3B5
:100770000020EBE75CF8236047F823600133EDE7E6
:10078000646824F00104EFE74FF47E00DEE7904256
:1007900034BF4FF4E0200020D8E700BF00800040C5
:1007A00000C00740826C2DE9F041531EB3F5887FED
:1007B0001BD8D0E9093CD0E90B57C91A91424469CA
:1007C000866B28BF11462FB9C768A7EB050E8E456B
:1007D00098BF07630F460D44521AC5628264E5183C
:1007E00006EB040E1FB919444162BDE8F0812A1BD3
:1007F00096428CBF62460022A5EB0E08224412F8F6
:100800000820013F05F8012BECE72DE9F04F0446E5
:1008100093B009910F92236BD4F82CA00893636ACC
:100820000193089B002B40F0A280E368099A01998C
:10083000A3EB0A03521A9A4240F299800B444FF0FC
:10084000FF37D4E90DB9D4E90626A5680A9307FA5B
:1008500005F5ED4310956568E36B07FA05F5ED4383
:10086000119500250293236C21690393636C0D9508
:100870000493236801F244650E936369069505931A
:10088000A36A0793236A109DB6F1807F05EA0A08E0
:100890004FEA0B1508EB050E0B953CBF1578360299
:1008A00031F81E7038BF45EA03234FEAD62507FB0F
:1008B00005F538BF01329D4240F2B880C7F50066A9
:1008C00007EB561721F81E7001F66C6CBAF1000F99
:1008D00001D1089EAEB1119E01980AEA06070E9E4C
:1008E000B740002845D1079E013E0598865D0E98C9
:1008F000C0F1080E46FA0EF637444FF4C06606FB08
:1009000007CCBBF1060F0AF1010A3FD80126BBF163
:10091000030F94BFABEB0B0BABF1030BB5F1807F77
:1009200038BF92F800E04FEA460638BF2D023CF887
:10093000067038BF4EEA03234FEAD52E07FB0EFEA2
:1009400038BF01329E450CEB060815D9C7F5006586
:1009500007EB55177546A8F80070FF2EDED90598ED
:10096000019FC65538462E4601300190B4E1099BDF
:1009700065E70198461EB8E7A7EB5717A5EB0E05EC
:10098000A3EB0E03A8F800700136E6E70198019F7B
:10099000A0EB090607984FF480784F4528BF002048
:1009A00007460598BBF1090F0644F05D8CBF06268B
:1009B0000326ABEB060B01260B900B98B5F1807F5D
:1009C0004FEA400008EB06070B9000EA080038BF2A
:1009D00092F800E0074438BF2D020C900CEB470062
:1009E0003CF8177038BF4EEA03234FEAD52E07FBB9
:1009F0000EFE38BF01329E454FEA46060BD9C7F5B9
:100A0000006507EB5517754607800C9828EA000823
:100A1000FF2ED2D9A3E7A7EB5717A5EB0E05A3EB43
:100A20000E0307800136DDF83080F1E7761BA7EB77
:100A30005717B6F1807F21F81E70A3EB05030BF169
:100A4000C00C3CBF1578360231F81C7038BF45EA3F
:100A500003234FEAD62507FB05F538BF01329D4237
:100A60004FEA4C0E40F2DA800498C7F500660C900D
:100A7000039807EB56170490029821F81C70CDE9F3
:100A800002900BF10C0B01F26467B5F1807F3CBF63
:100A900016782D02B7F800C038BF46EA03234FEAA4
:100AA000D5260CFB06F638BF01329E4240F28B8100
:100AB0004FF0000ECCF500650CEB551CA7F800C0FC
:100AC00007EB081704374FF008090125B6F1807FBE
:100AD00038BF92F800804FEA450538BF360237F834
:100AE00005C038BF48EA03234FEAD6280CFB08F8B4
:100AF00038BF0132984507EB050040F29781CCF5ED
:100B000000660CEB561C4646A0F800C04D45DDD3F0
:100B1000AEEB090E0EEB0500BBF10B0F0B9040F294
:100B2000BC82032888BF4FF49C6E4FF001059CBF28
:100B30004FEAC01E0EF5587EB6F1807F4FEA45059C
:100B400038BF92F800C00EEB050838BF360231F806
:100B5000087038BF4CEA03234FEAD62C07FB0CFC85
:100B600038BF01329C4540F26B81C7F5006607EB48
:100B70005617664621F808703F2DDDD9403D032DFC
:100B80003DD905F0010C0D2D4FEA55074CF0020C34
:100B900000F26E814FF0010EC5F52B79013F0CFA82
:100BA00007FC09F10309E1444FEA49006546F146B3
:100BB0000D900D98B6F1807F4FEA4E0E38BF92F837
:100BC0000080704438BF360231F800C038BF48EAB0
:100BD00003234FEAD6280CFB08F838BF01329845AA
:100BE0000C9040F23781CCF500660CEB561C464663
:100BF0000C9821F800C0013F4FEA4909D9D1089863
:100C000005F10109002840F03482AA4500F234823F
:100C1000019B6362012013B0BDE8F08F0898A7EB39
:100C20005717761B5B1B21F81C7010B9BAF1000F27
:100C3000F0D0B6F1807F38BF15780EF1180C38BFB0
:100C4000360231F80C7038BF45EA03234FEAD62547
:100C500007FB05F538BF01329D4260D9C7F5006634
:100C60000B9807EB5617B5F1807F21F80C7000F157
:100C7000F00C38BF1678C44438BF2D0231F81C7010
:100C800038BF46EA03234FEAD52607FB06F638BFEE
:100C900001329E422AD90198C7F5006507EB551726
:100CA00021F81C70A0EB0905019F07980AF1010AC1
:100CB0004F4528BF002007460598BBF1060F0544A5
:100CC000ED5D019F88BF4FF00B0BC555384698BFAF
:100CD0004FF0090B013001900A98019DA84240F2A3
:100CE00063810F9890423FF6CEAD5DE1AD1B9B1B3B
:100CF000029ECDF80890B146A7EB571721F81C705B
:100D00000498BBF1060F0C9003988CBF4FF00B0BAF
:100D10004FF0080B01F66827CDE90390B5E6761B86
:100D2000A7EB5717B6F1807F21F80C70A3EB0503F2
:100D30000EF1300C3CBF1578360231F80C7038BF1C
:100D400045EA03234FEAD62507FB05F538BF0132F4
:100D50009D4206D9C7F5006607EB561721F80C70BF
:100D6000CEE7761BA7EB5717B6F1807F21F80C7002
:100D7000A3EB05030EF1480E3CBF1578360231F89F
:100D80000E7038BF45EA03234FEAD62507FB05F569
:100D900038BF01329D420AD9C7F5006607EB5617E6
:100DA00021F80E70DDE9026002900396A8E704982E
:100DB0005B1B751B029E02900398A7EB571721F847
:100DC0000E700490F1E7AD1BACEB5C1CB5F1807FBD
:100DD000A7F800C0A3EB06033CBF16782D02B7F8B6
:100DE00002C038BF46EA03234FEAD5260CFB06F6BD
:100DF00038BF01329E420CD9CCF500650CEB551C76
:100E0000A7F802C007EB081707F582774FF0080E26
:100E100059E6ACEB5C1C9B1BA7F802C0AE1B07F5A8
:100E200001774FF0100E4FF480794EE6ACEB5C1C6E
:100E3000A6EB0806A3EB0803A0F800C0013565E6A1
:100E4000A7EB5717A6EB0C06A3EB0C0321F80870D1
:100E5000013591E60C98ACEB5C1CA6EB0806A3EB05
:100E6000080321F800C00EF1010E45EA0905C2E6AB
:100E7000053FB6F1807F3EBF1578360245EA032371
:100E80004FEA5606A3EB06034FEAE37505EB4C0C5D
:100E900038BF01323540013F0CF1010C2B44E8D141
:100EA000B6F1807F3CBF177836024FEA0C15B1F8D7
:100EB00046C638BF47EA03234FEAD6270CFB07F79D
:100EC00038BF01329F4240F2AA80CCF500660CEB9D
:100ED000561C0226A1F846C60698B7F1807F4FEA55
:100EE000460C30F816E03EBF16783F0246EA032370
:100EF0004FEAD7260EFB06F638BF01329E4200EBC2
:100F00000C0840F29680CEF500670EEB571EA8F84D
:100F100000E0B6F1807F069838BF17784FEA4C0E94
:100F200038BF360230F81CC038BF47EA03234FEA07
:100F3000D6270CFB07F738BF01329F4200EB0E08A3
:100F400040F28280CCF500660CEB561CA8F800C07D
:100F5000B7F1807F06983CBF16783F024FEA4E0CEF
:100F600030F81EE038BF46EA03234FEAD7260EFBCF
:100F700006F638BF01329E4271D9CEF50067069859
:100F80000EEB571E20F80CE0681C7FF438AE0B996E
:100F9000ABF10C0B01F589710D91DDE90291029124
:100FA000049903910C990491B6F1807F3EBF1178AA
:100FB000360241EA032323620D9B38BF0132A3644A
:100FC000019BC4E906266362029BC4F82CA0E3637C
:100FD000039BC4F838902364049BC4F834B0636462
:100FE000236B1BB9E368534598BF236309992046D7
:100FF000FFF7D8FB636A099A9342A36C07D2A269F0
:101000000F998A4203D2B3F5897FFFF404ACB3F59C
:10101000897F02D94FF48973A3640020FBE5ACEB10
:101020005C1CDB1BA1F846C6F71B45F00105032637
:1010300052E7AEEB5E1E9B1BA8F800E00CF1010C22
:1010400045F00205BE1B64E7ACEB5C1CDB1BA8F89B
:1010500000C00EF1010E45F00405F71B78E7069875
:10106000AEEB5E1E9B1B20F80CE045F00805BE1B96
:101070008AE70898A842C9E5BBF1120F8CBF4FF070
:101080000A0B4FF0070B0A98019F0B9DB0EB070C62
:1010900005F1020509D13B46BBE5DDE9029002906E
:1010A000049803900C980490EDE70198019FA0EB41
:1010B00009080798AC4528BFAC464F4528BF00201B
:1010C00047460744A5EB0C000D900798E244C51B6A
:1010D000AC450598019D05440CD8019805EB0C0E14
:1010E0003F1A6044019015F807C005F801CBAE45E2
:1010F000F9D1F1E5E646059810F807800798013721
:10110000B84208BF0027BEF1010E05F8018BF2D1ED
:101110000198604429E42DE9F047D0E907530127FD
:101120008468D0F82CE0A740D0F834C0013F0669AD
:1011300007EA0E0707EB0C18B5F1807F0A4436F872
:10114000189007D2914280F0E3810C782D0244EA96
:1011500003230131EC0A09FB04F4A3427BD2056BA3
:1011600006F66C6615B9BEF1000F19D0D0E90085FE
:101170000127AF40013F07EA0E0707FA08F5476A63
:10118000D0F814E007B9876A013F1EF80770C8F16C
:10119000080847FA08F72F444FF4C06505FB0766B7
:1011A000BCF1060F20D801204000B4F1807F355AF1
:1011B00007D2914280F0AC810F78240247EA0323E2
:1011C0000131E70A7D43AB4223BF0130641B5B1B47
:1011D0002C46FF28E8D90120B4F1807F80F02881D7
:1011E000914228BF002023E1876BD0F824C04569D5
:1011F000BC45ACEB070E2CBF0027876A05EB0E0041
:1012000010F807C001204FF480774FEA4C0C07EA32
:101210000C0E3D187544B4F1807F36F8155008D295
:10122000914280F0758191F80080240248EA0323FE
:1012300001314FEAD42805FB08F54000AB422DBF31
:10124000013027EA0E072C46641B24BF5B1B774640
:10125000FF28DAD9BFE7281B0CF1C00CB0F1807F62
:10126000A3EB04034FEA4C0436F81CC007D29142AA
:1012700080F04E810D78000245EA03230131C50A52
:101280000CFB05F5AB4280F0A48002204FF0000C6F
:1012900006F2646EB5F1807FBEF8008007D29142FD
:1012A00080F036810C782D0244EA03230131EC0AE8
:1012B00008FB04F4A34280F0EF800EEB071707F160
:1012C000040E00274FF008094FF001084FEA4808C4
:1012D000B4F1807F3EF8085008D2914280F0188126
:1012E00091F800A024024AEA032301314FEAD42AEC
:1012F00005FB0AF5AB4223BF08F10108641B5B1B29
:101300002C46C845E2D3BCF1030F3FF665AFA7EB0F
:1013100009074744032F88BF4FF49C674FF001052E
:101320009CBFFF0107F558776D0006EB050CB4F183
:10133000807F3CF807C008D2914280F0E98091F8A4
:1013400000E024024EEA032301314FEAD42E0CFBC5
:101350000EFC634523BF0135A4EB0C04A3EB0C0387
:1013600064463F2DE0D9403D032D7FF635AF0D2D6E
:101370004FEA550700F2B28005F0010C013F4CF036
:10138000020CC5F52B750CFA07FC0335654406EB1A
:1013900045064FF0010C4FEA4C0CB4F1807F36F853
:1013A0000C5008D2914280F0B38091F800E0240202
:1013B0004EEA032301314FEAD42E05FB0EF5AB4272
:1013C00023BF641B5B1B0CF1010C2C46013FE2D1D7
:1013D00002E7401B3444B0F1807FA3EB0503B4F86F
:1013E00018C007D2914280F093800D78000245EA40
:1013F00003230131C50A0CFB05F5AB4222D208F1EB
:10140000F008B5F1807F36F8180006D291427FD2FD
:101410000C782D0244EA03230131EC0A6043834235
:1014200008D2B0F1807F71D2914234BF03200020F6
:10143000BDE8F0872D1A1B1A06F6682E03204FF020
:101440000C0C27E7401BB0F1807FA3EB0503B4F839
:1014500030C006D291425BD20D78000245EA0323E8
:101460000131C50A0CFB05F5AB42E5D3401BB0F1D9
:10147000807FA3EB0503B4F8485006D2914247D2CF
:101480000C78000244EA03230131C40A6543AB42ED
:1014900024BF5B1B451BCFE72D1BB5F1807FA3EB62
:1014A0000403BEF8028006D2914231D20C782D029C
:1014B00044EA03230131EC0A08FB04F4A34205D2F9
:1014C0000EEB071707F5827E0827FBE61B1B0EF5C0
:1014D000017E2C1B10274FF48079F5E6053FB4F10F
:1014E000807F06D2914213D20D78240245EA03236D
:1014F000013164081D1BED0F013D2540013FA3EBA9
:101500000503ECD106F24466042742E703208FE787
:1015100000208DE7002301224362C0E91232836577
:10152000C0E90B33026570472DE9F04F984600275C
:1015300085B09DF83830DDF83C90D8F80050C8F8F8
:1015400000700446019116460293FFF72BF989F8C3
:101550000070A36CB3F5897F08D1206A10B901230C
:1015600089F80030003018BF01203AE0E36C1BB36B
:10157000A36DA5B1042B04D994F85C309BB1012074
:101580002FE05A1CA26516F8012B234483F85C2037
:10159000D8F80030013D0133C8F80030E8E7042BEB
:1015A000EAD803231AE0D4F85D20E36412BA226279
:1015B0004FF0FF32A365E261636A019A934213D34D
:1015C000A36C002B40F0B180206A18B9042389F87D
:1015D000003006E0029B002B39D10223002089F85D
:1015E000003005B0BDE8F08F4FF0000B236D9BB1CC
:1015F000D4E900321A444FF4407393400022216929
:1016000003F23673934225D80123C4E91033C4E9A9
:101610000E33002363632365A36D002B5ED1132D6E
:1016200002D9BBF1000F22D02A4631462046FFF7EF
:1016300072FDA8B92A46314604F15C0002F0D3F9E4
:10164000A565D8F800002844C8F80000A9E74FF0C5
:10165000010BCBE74FF4806021F812000132D1E793
:10166000BBF1000F01D0022863D1324602E0A5F1A0
:1016700014023244A66101992046FFF7C6F80028FB
:101680007FF47DAFA369D8F800209E1B3244C8F8D0
:101690000020AD1B1E465CE7D05DE11981F85C00BF
:1016A0000137132FA7EB030A01D85545F4D8132FA0
:1016B000A76504F15C0302D9BBF1000F16D01946EF
:1016C0003A4620460393FFF726FD039B48B9D8F816
:1016D000007003235744C8F8007078E71F46F21AD9
:1016E000DFE7BBF1000F01D0022822D1A3611A4627
:1016F000019920460393FFF788F800287FF43FAF55
:10170000A269039BD31A9F420DD3FF1ABA450AD38D
:10171000D8F80030AAEB07073B44C8F80030ED1BAF
:10172000F319A065B6E70B205BE7029B002B3FF4A3
:1017300054AF022389F8003021E72DE9F04F89B03A
:10174000DDF848809B469DF84C3004460393D8F85A
:1017500000308A46029300231746166804931360EC
:10176000C8F80030029B149A0793D4E909318B42E0
:1017700008BF049B204608BF6362D4F82490A1EB05
:101780000903B34232BF0023039B06EB0901CDE9F5
:1017900000325A4607ABFFF7C7FE0799D8F800207A
:1017A000029B0A44C8F80020656A5B1A8B44616991
:1017B000A5EB090505902A4650464944029302F0DC
:1017C00012F93A68059B2A44AA44761B3A6013B979
:1017D0000DB1002EC6D1184609B0BDE8F08F10B586
:1017E00004464B680846216998470023236110BDD1
:1017F00070B5D1E9004323444FF440749C40036921
:101800000546164604F2367413B1436DA3420AD05E
:1018100031462846FFF7E3FF3368610030469847BA
:101820006C65286108B1002070BD0220FCE738B566
:1018300004460D46FFF7D3FF6B6861692846984759
:101840000023636138BD042A01D804207047D1F811
:101850000130B3F5805F38BF4FF48053C3600A781E
:10186000E02AF2D80923B2FBF3F303EBC301511AC8
:10187000C9B201602D21B2FBF1F282600522DBB218
:10188000B3FBF2F202EB82029B1ADBB24360002050
:1018900070470000F0B585B06E46044630461F46DE
:1018A000FFF7D1FF60BB3A4631462046FFF7A0FF65
:1018B00030BB039A174DB2F1804F06D240F6FF714C
:1018C000154BAA4294BF0D461D46AB1823EA0505E9
:1018D0006169954238BF154611B1A36AAB4211D078
:1018E0007B683846984700232946636138463B6841
:1018F0009847606130B920463946FFF770FF0220F3
:1019000005B0F0BD96E80F00A56284E80F00002046
:10191000F6E700BFFFFF3F00FFFF0F000A4B18680C
:1019200030B9B1F5205F0DD8012208481A60704720
:10193000012806D1B1F5005F03D8022204481A60DD
:1019400070470020704700BF2C010020A421002018
:10195000A001002031B1044A1368002BC4BF03F179
:10196000FF331360704700BF2C01002002232DE9D4
:10197000F04F82468B46174600248BB0DFF8CC80B0
:10198000DFF8CC908DF81F309DF81F30022B06D069
:101990001FB341F20232012B18BF14461DE0D8F8E4
:1019A0000010274CC1F540730893D9F8003008AAFD
:1019B00009930DF11F03CDE9017309AB0093214495
:1019C000204B2148FFF7B9FE9DF81F30049440B129
:1019D0000FB1022B06D041F2033420460BB0BDE814
:1019E000F08F53B3089BD8F8005015491D4425F0DB
:1019F00003065B463246504601F05CFBB5420446A6
:101A0000A5EB060308D01A460593049B0C48334403
:101A1000194601F0F3FF059B0999C8F80030D9F881
:101A200000308B42A3EB010504D906482A46014445
:101A300001F0E4FFC9F80050A6E741F20234CCE718
:101A4000A84B0020A449002030010020A84E00200F
:101A5000A44B002008B570220021064801F0E7FFE2
:101A600001220020044B1A70044B1860044B1860CC
:101A700008BD00BF30010020A0210020A84E00209A
:101A8000A44B00202DE9F047814658680F461446C4
:101A90009A4630B31D4B1D787DB100221A7051F863
:101AA000043B0522C9F8603019481A4BFFF7F2FED3
:101AB00040BB1748FFF72EFD1125174E641B3368F6
:101AC000B046C3F50073A3420DD3D8F800601348A5
:101AD00022467919304401F086FF00203444C8F8CA
:101AE0000040BDE8F087002251464846FFF73EFF20
:101AF0000028F6D13368C3F50073A342E5D241F262
:101B00000430EEE741F20530EBE700BFA0210020F2
:101B10003001002000010020A44B0020A449002037
:101B2000436D002B0CBF11200120704770B54C682D
:101B300006460D46C4B10122FFF718FF044698B9C6
:101B40000C4B1A6862B1FF210B4B032A0ED92B46AE
:101B500004220949304601F0ADFA08B1044603E019
:101B600006490748FFF763FE204670BDD154013295
:101B7000EBE700BFA84E0020A84B0020000100208A
:101B80003001002000487047CC3A000041F2680361
:101B90004FF40031014A0020D150704700800040CE
:101BA000024BD86900F00100704700BF00000340FD
:101BB00008B5034608469918B1F5002F04D8194610
:101BC00001F011FF002008BD40F20240FBE783183E
:101BD000B3F5002F10B50ED940F2024010BDC45825
:101BE00001340AD104339A42F9D800F0B1FD00283B
:101BF000F2D00020F2E70023F5E740F20340EDE7E2
:101C000038B541EA0003C3F30C0304469BB90D1831
:101C1000B5F5002F08D8204604F5005400F088FDE3
:101C2000A54204D00028F6D140F2024038BD002879
:101C3000FAD00020FAE740F20440F7E742F26803E6
:101C40004FF40031014A0020D1507047008000401D
:101C500013B5044622B10024009400F057F904465D
:101C6000204602B010BD000030B501B10139074C6B
:101C7000E568ED03FCD4120743F0004302F0805204
:101C80001843024342EA0121616030BD0020024C4A
:101C9000F0B58DB005AC84E80700069D1E469D4258
:101CA00028BF1D46129815B30BB3002700F5181076
:101CB00000F241104402CDE90A37631B09930CABD3
:101CC00043F8185D029593E803008DE803000CAA21
:101CD000059B12E9070000F0D1FAAE4207D9394658
:101CE000721BA01B0DB0BDE8F04000F0C5BA0DB0EE
:101CF000F0BD30B51D4691B001AC84E80700014647
:101D0000DDE90223D8004ABF03326A0022F0030251
:101D100004A8FFF79DFF04A800F00EF914992A46C5
:101D200001F5181101F241114C02611B002308A8B2
:101D3000FFF78EFF04F5007100232A46491B0CA80B
:101D4000FFF786FF0CA800F0F7F808A904A800F038
:101D5000CDF811B030BD10B58CB005AC84E80700EB
:101D60000E9A029302F5181202F5A0725202CDE902
:101D70000923002206AB93E803008DE803000B92D1
:101D80000CAA059B12E9070000F078FA0CB010BD10
:101D90000122054B9A60DA68D203FCD4D86820F09F
:101DA0000F000004000C70470020024C2DE9F04B9E
:101DB0004FF000088AB003AC84E8070081461C4657
:101DC0004646059F07AD07F0805B049B434502D85C
:101DD0000AB0BDE8F08B139B13B9B31E012B0AD9CF
:101DE000129BCDE90794099700965BB195E807002F
:101DF0002346FFF74DFFBBF1000F00D1A144013690
:101E0000A044E2E7234695E80700FFF7A4FFF2E7C6
:101E100082B01FB504AC04E907000A9A029907933F
:101E20008A4228BF0A46039B0798D90044BF033261
:101E300022F0030222F070410D4A03F0E0431060EB
:101E4000099A0C4802F0E04242F000520A43026054
:101E5000002243F00053019C0B4307494260846019
:101E60000B60064B1A6004B0BDE8104002B070472A
:101E70000000024C0800024C1800024C3400024CD6
:101E80003F22044B1A60102243F8142C03229A605C
:101E9000704700BF3000024C024A13689B07FCD415
:101EA000704700BF3C00024C034B1B6813F0240F2B
:101EB00014BF0420002070472800024C08B5FFF72B
:101EC000F3FF084B1B6823F47F4323F0EF03002B41
:101ED00014BF0423002303431EBF0122024B1A60D8
:101EE00008BD00BF3C00024CFCFFFF3F032208B5C9
:101EF000054B186019615A63FFF7C2FFFFF7CCFF6B
:101F0000BDE80840FFF7DABF0000024C10B522F030
:101F1000704200F11004C0E90014826041B182688F
:101F200003F0704313438360029BC360204610BDDF
:101F3000836843F08043F6E701234360C36843F0BE
:101F40002003C360836843F0005383607047C36815
:101F5000DB0658BFC368C36803F00F03042B0ED819
:101F6000012202FA03F313F01A0F08D0C36801F03C
:101F70001F0143EA0123C3608368194481607047ED
:101F80000069704770B586B003AD064685E80E005F
:101F9000FFF7F6FF442804463AD8726800EB800346
:101FA0009A4203D0062343439A4233D10B9BB3EBAF
:101FB000440F2FD10E9A93422CD1F368012221466F
:101FC0003120FFF751FE96E807000123CDE90033E9
:101FD0002346FFF7EBFE08230AAA009307CA23460D
:101FE000FFF787FE0C23009395E807002346FFF7D1
:101FF0004FFE0A230DAA009307CA2346FFF779FE76
:10200000FFF7C6FE002814BF0320002006B070BDF5
:102010000120FBE70720F9E70138C0B206289ABF84
:10202000014B185C00207047D43B00000138C0B25F
:1020300006289ABF014B185C00207047DB3B00006C
:102040000138C0B206289ABF014B185C00207047C7
:10205000E23B00002DE9F04F8146BBB003A880E8C9
:102060000E0009F1FF339DF810A1049F0D46DDF825
:102070001480062B00F2E480DFE803F0041E242A1B
:1020800030363C006F4B1B68D80703D401203BB0AF
:10209000BDE8F08F012307930023BAF1010FCDE9CA
:1020A00008332DD0BAF1020F00F093804846FFF7B5
:1020B000C7FF6324064630E0624B1B689907E5D5ED
:1020C0000223E8E75F4B1B685A07DFD50423E2E7EA
:1020D0005C4B1B681B07D9D50823DCE7594B1B68F1
:1020E000DE06D3D51023D6E7564B1B689C06CDD50C
:1020F0002023D0E7534B1B685806C7D54023CAE7B7
:10210000504B1B68D903C1D5079B484643F4C063B5
:102110000793FFF781FF032406461323042200934D
:1021200007A94FF0005312A8FFF7F0FE48F0005344
:10213000009429463A46FFF7E9FE4FF00C0B05469E
:102140000024DDF81481469B0BFB038BD8455ED140
:10215000BAF1030F0BD14846FFF772FF024648461B
:10216000FFF764FFBA426BD10138204268D1002CDE
:102170005ED10323224600932846234608A9FFF791
:10218000C5FE04240546103D2846FFF7D5FE21462E
:102190002846FFF7DCFE489AB24228BF3246144672
:1021A000002A4BD00023479900930AA8499BFFF7C8
:1021B000ADFE321B04D0002300931946FFF7A6FEA4
:1021C0001038FFF7B9FE12A80AA9FFF78FFE00200A
:1021D0005DE71C4B1A6892037FF558AF1B68DB0361
:1021E0007FF554AF77B17C4204F00304079B484667
:1021F00043F4E0630793FFF70FFF240244F0A304C6
:1022000006468AE7B846042708AD3C46EEE7D8F80C
:10221000042014444AB1032300932846D8F8083018
:10222000D8F80010FFF772FE054608F10C088DE79C
:1022300014F0030418BFC4F10404A4E70AA8B8E723
:10224000072024E70C04024C70B58AB007AC84E880
:102250000E0003AD064694E8070085E80B00012355
:1022600002930EAB01930323009394E80E003046D3
:10227000FFF7F0FE0AB070BD01F0D9BB82B02DE9C6
:10228000F0418AB005AD85E807001193079B149CC7
:102290005B0036D4DDF81880139B444528BF4446C4
:1022A00013F08053129A02D1944228BF144644B3CB
:1022B0000F2C14D9029412AB93E803008DE80300AD
:1022C000119B95E80700FFF7A3FDFFF7D9FDFFF786
:1022D000E3FD0AB0BDE8F04102B0FFF7EFBD059E97
:1022E000119F9BB10025A8EB0502042A3B6828BF7B
:1022F0000422701909A90435099301F074FBAC425A
:10230000F1D80AB0BDE8F04102B070472246394624
:1023100030460AB0BDE8F04102B001F064BB0000F5
:10232000094B00209A6E42F400529A66D3F860225C
:1023300042F00102C3F86022D3F8602242F00202A8
:10234000C3F86022704700BF00800040094B0020A6
:102350009A6E22F400529A66D3F8602222F00102AB
:10236000C3F86022D3F8602222F00202C3F8602290
:10237000704700BF008000402DE9F04101289AB06D
:102380001F46209B31D003D3022834D01E4D28E0B5
:1023900014244FF002089B01059300250AAE049215
:1023A00030462246069501F01EFB09950796FFF779
:1023B000B7FF0546A8B904AB93E807008DE807000E
:1023C000089407AB40460ECBFFF73EFF8046FFF771
:1023D000BDFFB8F1000F14D122463146384601F056
:1023E00002FB28461AB0BDE8F0819B01059320242A
:1023F0004FF00308D1E79B01059320244FF0040818
:10240000CBE7024DEDE700BF80AFFFFF80ADFFFFE0
:102410002DE9F34702281446DDE90A9280460E466C
:102420001F464ED81CB9002002B0BDE8F0871368E3
:102430003F2B42D8516809B1002F3ED1B8F1010FAE
:102440003DD0224D2249B8F1020F18BF0D4603F0CE
:102450003F00E318136022BF53680133536090B309
:10246000C0F1400A544522D331465246484401F057
:10247000BAFA01234A46009329463B464046A4EB5C
:102480000A04FFF779FF3F2C56440DD93D46A309B6
:10249000009332463B4629464046FFF76DFF24F045
:1024A0003F031E4404F03F04002CBCD00020224611
:1024B0003146484401F097FAB5E73D46C7E7054D78
:1024C000C5E70548B0E73F2CF1D9E0E7293C00001B
:1024D000E93B0000093C000080AFFFFF2DE9F0411F
:1024E000012886B004460E4690461D4604D045D3CA
:1024F000022841D022483CE01C272A68CDE900850B
:10250000D3008DF80F3053098DF80E30530B8DF832
:102510000D30530D8DF80C306B682046D90001EB5F
:1025200052718DF80B1002F03F025909372A8DF8CD
:102530000A104FEA53314FEA535394BFC2F13802A5
:10254000C2F178028DF809108DF808300D49334634
:10255000FFF75EFF082233460DEB0201CDE900854F
:102560002046FFF755FF3A4631460C9801F03BFAFA
:10257000002006B0BDE8F0812027BEE71427BCE7A5
:1025800080AFFFFF493C000018B16C22002101F030
:102590004EBA704707B590F868300190002B00F1F3
:1025A0002803009300F1080314BF01200220FFF765
:1025B0002FFF03B05DF804FB07B590F868200346D1
:1025C000002A009100F1280200F1080114BF012047
:1025D0000220FFF783FF03B05DF804FB002399425C
:1025E000D4BF00210121C0E9003380F86810704792
:1025F000FFF7D0BFFFF7E0BF0068024BC31A584295
:1026000058417047FD0707FD034A044B90420CBF39
:1026100018460020704700BFFD0707FD8C3C0000F6
:10262000002070470020704700207047002070474E
:1026300028231B68186970472823186870474FF4CF
:10264000004070470120704710B5ADF50C7D4FF488
:10265000037209A9002000F0DBFB40F201240021F5
:1026600009A800F018FBA042F9D040F203239842D9
:1026700004D040F205400DF50C7D10BD9DF82430CE
:1026800003F00302022AF4D003F00502042AF0D07A
:1026900059070DD49DF824309A072CD4DB07E8D5D0
:1026A0000C99889800F02AFC0028E2D00020E2E78C
:1026B000139800F0FBF90028ECD0FEF705F8164B54
:1026C000044698420BD11C22002102A801F0AFF968
:1026D00001A80194FEF716F8B0F5403FC9D08898DC
:1026E00000F0C8FB0028D5D0FFF7A9FF00F0EEF9F5
:1026F0000028CFD1BDE7282212680A99926891423A
:10270000CCD9889800F0D4FB0028B2D0FFF797FF0F
:10271000129900F0A1F9ACE700000343FFF794BF62
:10272000004870474CE30700004870476CE307001F
:1027300008B54FF4003141F26803044AD150FDF767
:102740005FFEB0FA80F0400908BD00BF0080004085
:1027500038B540EA0204A4070CD16AB141F268031B
:102760004FF40035054CE550FDF774FEB0FA80F0EB
:10277000400938BD0020FCE70120FAE70080004056
:10278000F0B585B06C46024626460D4B03F11007A6
:10279000254618685968083303C5BB422C46F7D153
:1027A00004AB501E13F8011D10F8012F914204D103
:1027B000B342F7D1012005B0F0BD0020FBE700BF18
:1027C000A03C0000C0F30C032DE9F04105460F4684
:1027D00016460BB9FFF7ACFF05F5005424F4FF547F
:1027E00024F01F0405EB0608A04506D832463946FA
:1027F0002846BDE8F041FFF7ABBF2046FFF798FF42
:1028000004F50054F0E738B504460D46FFF7B8FF6D
:1028100040B16369012B08D1237C012B05D8A36942
:102820002B6038BD2C600120FBE70020F9E72DE983
:10283000F04F9FB0446B0646FFF7FEFE82462046EF
:10284000FFF79EFF18B900201FB0BDE8F08F237C72
:10285000012BF8D83427D7F800804046FFF790FFC7
:102860000028F0D045F6C07BD845ECD8FFF7DCFE59
:10287000002835D14FF0000902A92046FFF7C3FF19
:102880000028E0D0029BDAF810209A42DBD8B3424D
:10289000D9D3B3F5002FD6D803A8FDF747FD029A88
:1028A0003146921B03A8FDF757FD03A8FDF756FD1F
:1028B000029DFFF7B9FE2035029E002848D0B9F1ED
:1028C000000F42D0A36B03F12402009204332A4686
:1028D000314603A8FDF7B2FCB0FA80F04009B3E737
:1028E000236913F0FF0F2BD01B0A29D0A56B3DB332
:1028F0003F683846FFF744FF81460028A3D05F4574
:10290000A1D8BB6B5A6C6B6C9A429CD803A8FDF79C
:102910000DFD4822294603A8FDF71EFD03A8FDF77B
:102920001DFDBB6B05F1480103F124020092043345
:1029300005F1680203A8FDF781FC00289CD082E71E
:10294000FFF774FE002895D07DE7D8F83830BAE755
:10295000FFF7E6FE0446FFF7E7FE23460090B6E7E2
:1029600070B504460E461546FFF766FE0369A3429E
:102970000AD8426963199A4206D32A46314620464C
:10298000BDE87040FFF71EBF70BD2DE9F041154650
:1029900007468846FFF750FE0646FFF750FEC4196B
:1029A0006319B3F5002F0FD83FB9FFF748FE7369DD
:1029B000834202D93069FFF7BBFE2A4641462046D2
:1029C000BDE8F041FFF7FEBEBDE8F081F8B5D0E903
:1029D000006706F160460446456BFFF72DFEB6F52D
:1029E000004F01D90020F8BD0369BB42FAD8B7F502
:1029F000002FF7D84033AB4202D8B5F5002F05D9E8
:102A0000FDF7FEFB80F00100C0B2ECE7FDF7F8FB3C
:102A100020B12046BDE8F840FFF709BF2846FFF780
:102A2000AFFEA8B12B7C012BDCD86B69002BDAD070
:102A3000022BEED1AB69C4F1040119444FF0FF320F
:102A40002046FDF7DFFB034BC31A58425841CAE743
:102A50000120C8E7E320BBDE70B54FF0FF3288B03D
:102A600006460D46FDF7CEFB0E4B984217D140F2BD
:102A7000022000F07DF81C22002101A800F0D7FF01
:102A8000094B08AC44F8203D31462046FDF720FDB7
:102A900020462946FDF71CFD2046FDF723FD0020BA
:102AA00008B070BDE320BBDE0100064313B5044649
:102AB00001A8FDF7C9FD30B90198A0422CBF002044
:102AC000012002B010BD0020FBE7000030B5054634
:102AD00089B040F2022000F04BF81C22002101A82E
:102AE00000F0A5FF064B08AC44F8203D29462046DF
:102AF000FDF7EEFC2046FDF7F5FC002009B030BDE7
:102B000000000343B1F5037F10B5044610D34FF422
:102B10000372002100F08BFF002304F5C87263707C
:102B200004F5A47104F12C00BDE8104000F014BBC2
:102B300040F2052010BD13B50446009101462C302B
:102B400000F050FBC4F8080218B141F207039842A4
:102B500009D1A3784BB140F2032040F20223E2787E
:102B6000002A08BF184602B010BD40F20120FAE763
:102B70004FF000534FF20F0218805A8070474FF009
:102B800000534CF23C325A80704700004FF0005323
:102B90004FF20F0218805A80BFF34F8F0549064B42
:102BA000CA6802F4E0621343CB60BFF34F8F00BFEB
:102BB000FDE700BF00ED00E00400FA054FF0005310
:102BC0004FF20F015A888A4201D1188870473AB9EA
:102BD0001B8840F20220012B18BF4FF40070704791
:102BE0004FF400707047000031B10A4B5A688242BE
:102BF00005D80023C1E9003340F20140704701309D
:102C000053F8302003EBC0035B680A604B60002080
:102C1000704700BFE83A000001221A7070470000B8
:102C200070B40D4C0E461146626882420DD90130D7
:102C300004EBC0025268F51895420AD854F83000E7
:102C40001A46304470BCFEF7B3BF40F2014070BC7E
:102C5000704740F20240FAE7E83A000030B5044617
:102C60000D46A3B002AAD0F804128023D0F8FC01CC
:102C7000FFF7D6FF0095802302AA214604F12C001D
:102C800000F0B0FAD4F80432C4F808028033C4F873
:102C9000043223B030BD1FB50023CDE90033CDE9A8
:102CA0000213D0F808320446A3B9D0F80422D0F8B1
:102CB00000329A420ED26946FFF7D0FFD4F80802DC
:102CC00098B141F2070240F20123904208BF184632
:102CD00004B010BDA3785BB140F2022040F20323A0
:102CE000E278002A18BF1846F2E740F20120EFE729
:102CF00040F20220ECE7000070B50D46002186B0DE
:102D000006AB03F8111D02931E4B044616461160D4
:102D100028461C22CDE90333059300F088FE9DF878
:102D2000072062B994F87230142B08D0D4F8083216
:102D30002BB9D4F80412D4F8003299421AD323786C
:102D4000990744BF636833602378DB0709D504F132
:102D5000080304F1240153F8040B8B4245F8040BDB
:102D6000F9D162B9237840F20640002B18BF002049
:102D700006B070BD02A92046FFF770FFCFE7002024
:102D8000F6E700BF192C000070B40D4C0E4611463A
:102D9000626882420DD9013004EBC0025268F51816
:102DA00095420AD854F830001A46304470BCFEF7F9
:102DB0000EBF40F2014070BC704740F20240FAE79B
:102DC000E83A0000074B5A68824207D9013003EB0A
:102DD000C002516853F83000FEF712BF40F20140C4
:102DE000704700BFE83A000010B5044660B14FF4E8
:102DF00080320023C0E90023044B1A785B6802721A
:102E0000C360FEF7BFFE206110BD00BFE83A0000BE
:102E100037B50C46054611462046FFF773FE48B904
:102E200069462846FFF7E0FE20B9019BC4F8FC5133
:102E3000C4F8003203B030BD38B500F5C87204469E
:102E40000D46202300F5A4712C3000F085F9D4F84C
:102E500008322BB9D4F80422D4F800329A4203D3B2
:102E6000A07800B1E07838BD29462046FFF7F6FE8D
:102E7000EDE7000000B5ADF5097D4FF4037205A93B
:102E8000FFF7C6FF78B904238DF81530074BCDE95D
:102E90000100039001A905A80493FFF7CDFF0DF5EC
:102EA000097D5DF804FB0020F9E700BF8B290000D5
:102EB00030B5ADF5097D0D460446FFF7BDFB8368CF
:102EC000AB4203D300200DF5097D30BD4FF40372F2
:102ED00005A92046FFF79CFF0028F3D102238DF8B7
:102EE0001530054BCDE90100039001A905A8049315
:102EF000FFF7A2FFE7E700BF8B29000000B5ADF5A3
:102F0000097D4FF4037205A9FFF782FF78B9012309
:102F10008DF81530074B0190CDE90230049001A9DE
:102F200005A8FFF789FF0DF5097D5DF804FB00207A
:102F3000F9E700BF6129000000234FF0FF32036072
:102F400001238B4201D30020704740F82320013336
:102F5000F7E7036840F204500133012B98BF0020CB
:102F6000704740F20250704770B5D1E90152AA4251
:102F700005D290F840302B449B1A402B10D90020EA
:102F800012E00A6890F84040D65C90F84120013386
:102F9000224402F03F02013486548B6080F84040A6
:102FA0008B689D42EDD8012070BD2DE9F041174698
:102FB000D1E90125521B90F8405004462A449A4218
:102FC0000E469DF818803FD2FFF7CEFF002845D16E
:102FD000152341F2020084F84630BDE8F08194F8F0
:102FE0004120A25C7A5594F841200135013202F06B
:102FF0003F0284F8412094F84020013A84F84020B0
:1030000094F8402012B1AB42E9D11D46D6E9011235
:103010008A4201D2AB4219D8AB42D9D1D4F8882028
:1030200029463846FDF7EEF8C4F88800B8F1000FDD
:1030300004D02A463946E06CFDF78EF9636D41F203
:1030400003001D446565C8E70025D9E731688A5C3F
:103050007A55B26801350132B260D7E70020BCE78B
:103060007FB500230093082315460DEB03020446A9
:10307000FFF79BFF41F203039842064613D1039AE0
:10308000029B6A60094A2B60934208D0084A934227
:1030900005D00822E06C0DEB0201FDF75DF96B68CD
:1030A000236500236365304604B070BDF70A0AF754
:1030B000FC0404FC2DE9F843044658680D46164606
:1030C0001F46002843D08B0743D1FFF7B1FA216E8A
:1030D00000F1040C06EB0109CC451DD800F11C02DF
:1030E000914219D28C45634638BF0B46914594BF37
:1030F000C3EB0909C3EB0209591AA3EB0C0005EB5A
:10310000010868304A464146204400F06CFC4A46BB
:10311000FF21404600F08BFCFFF791FA226E031D61
:1031200093420AD3B1180830814206D39B1AEA5859
:10313000C4F880204FF0FF32EA50D7E90038324619
:10314000206E2946C0470020236E1E442666BDE837
:10315000F88341F20200FAE72DE9F04100254FF033
:10316000FF3704468846164603F0200380F84230B5
:1031700080F84650A0F8405080F8435080F8455001
:1031800080F84450C0F88870C0E918551822FF2113
:10319000683000F04CFCC4F88070C4F88470C4E956
:1031A00012868822294604F1900000F040FC84F841
:1031B0001851FFF737FA30B1B8F1000F03D141F2DF
:1031C0000B00BDE8F081FFF72BFA30B1002EF6D0EE
:1031D000E06CFDF7ABF80020F3E7002EF8D13046A5
:1031E000EFE700002DE9F04FB7B0CDE90823342216
:1031F000D2F800A045F6C07203930023924504461E
:103200008846409E0A9300F2EE8099460A9A039BF4
:103210009A4280F0B98194F84630152BF7D8DFE850
:1032200013F08A009F007D000D0151004700160039
:10323000A10147009B014700850147009B019502C2
:103240008500E200E200FD028E032A0285000125CE
:10325000D4E914329A4266D200950BAA08A92046F6
:10326000FFF7A3FE41F20303984261D108F1080C75
:1032700063460BAF0DF1440E3A4603CA724518601F
:103280005960174603F10803F6D11068186098F8E2
:103290000030604643F0010388F80030FFF7D2F9B0
:1032A0000028D5D1152341F20C0084F846303FE0C8
:1032B0000DF12C0BD4E91452AA420A99C0F05681A0
:1032C00001234AE00125636D072B9FD80823009551
:1032D0000BAA08A92046FFF768FE41F203039842B3
:1032E00026D198F8003043F0020388F800300B9B99
:1032F000C8F80430236D083BC8F824300C9B0593B4
:10330000002B40F09B80052284F8462094F845204D
:10331000636642F0010284F84520D4E70125636D1D
:10332000072B40F29E8084F846506FE741F2070079
:1033300037B0BDE8F08F06AA08A92046FFF790FE37
:1033400041F203039842F3D1079B069A23650023B9
:103350006365AB4B9A4271D1022384F8463055E73E
:1033600006AA08A92046FFF77BFE41F20303984214
:10337000DED194F84420069B22B1A24A93425DD14B
:103380000E23EAE7A04A93424DD037D89F4A934292
:1033900058D02BD802F1D74202F5D81202F6F832F3
:1033A00093423CD006A8FFF727F900284CD01423FD
:1033B000069884F84630C4F88C00FFF725F994F895
:1033C0004230814698067FF521AFB9F1000F3FF4F6
:1033D0001DAFD9F80430002B3FF418AF20469847B2
:1033E00000283FF413AF41F20100A1E7884A93425D
:1033F00017D0884A9342D5D10423AEE7814A93423D
:1034000015D004D8844A9342CCD11323A5E7834A2C
:1034100093420AD0824A9342C4D109239DE70B23E9
:103420009BE7062399E7072397E70D2395E7FFF727
:10343000F7F818B994F84330002BA1D0152384F87D
:103440004630D0E7122388E7152341F2080084F8BC
:10345000463041F2040394F84320002A18BF18466E
:1034600066E7082300950BAA08A92046FFF79DFDF3
:1034700041F2030398427FF45BAF0B9B03F07F4361
:10348000B3F1407F05D0152341F2090084F846309E
:103490004EE70C9BD90705930BD4FFF7C1F8002822
:1034A0003FF43DAF059BDA053FF539AF152384F8AE
:1034B000463041F20A003BE701230DAA009308A918
:1034C00008232046FFF771FD41F2030398427FF481
:1034D0002FAF98F8003043F0040388F800300E9BBB
:1034E000C8F8283098F801305B071CD500204D4BF8
:1034F00060660B93236DC4F8843094F8453043F034
:10350000020384F84530F5686DB1336804220BA9D5
:10351000A8470822606E3368F5680DA91044A847D3
:10352000636E103363660C2384F84630636D072B9B
:10353000C2D96BE6042300950BAA08A92046FFF721
:1035400034FD41F2030398427FF4F2AE226D0B9BEF
:10355000042A059301D923660125636D032BE9D95C
:103560000A23FAE6002363660823F6E6099BAD1AF0
:1035700094F840205B1A032D134407D9032B2AD853
:1035800008A92046FFF7F0FC0020D1E69D42F7D8BD
:103590009D4228BF1D460123032D88BF25F003054A
:1035A00000935A462B4608A92046FFF7FEFC41F23D
:1035B000030398427FF4BCAE94F84630082B13D135
:1035C000B7688FB133682A465946606EB847636E54
:1035D0001D4465666EE6402D28BF4025D8E74FF0B4
:1035E000FF320BF805200135032DF8D90A2B1BD12A
:1035F00033462A4659462046FFF75CFD5AE600BF8F
:10360000EB17A603FC0404FCF60808F6F30B0BF317
:10361000F40A0AF4F50909F5F70A0AF7FD0303FDB0
:10362000FE0101FEEB17A65E052B18D198F80130BC
:103630009F077FF53FAEF368002B3FF43BAE626E11
:10364000042A0AD85319062B07D90CAB9B1A1A68FF
:10365000C4F884204FF0FF321A60F768B2E70C2BF1
:103660007FF428AE98F8013058077FF523AEF7684D
:10367000002FA7D11EE694F84230990607D5D4F85A
:103680008C00FEF7C1FF814600283FF4ACAE4FF03E
:10369000010B3EE0002B57D0B9F1000F54D0D9F800
:1036A0001030002B50D020469847DDE90953ED1A21
:1036B00094F840302B4498423FF662AFD4E914525C
:1036C000AD1A402D28BF40259D4228BF1D46CDF88C
:1036D00000B02B460BAA08A92046FFF766FC41F272
:1036E000030398427FF424AE94F842309A0610D532
:1036F000B9F1000F3FF477AED9F80870002F3FF40E
:1037000072AE33462A460BA92046B84700287FF4FC
:103710000FAED4E9142194F84230914203F0200313
:10372000B8D3002B3FF4CCADB9F1000F3FF4C8ADD6
:10373000D9F80C30002B3FF4C3AD314620469847F2
:1037400000283FF4BDADF3E50120AEE700230BAA4E
:10375000009308A904232046FFF727FC41F2030346
:1037600098427FF4E5ADD4F88820964B9A4205D074
:10377000152341F2050084F84630D9E5FEF750FFE5
:1037800010B9012388F8033098F80330002B3ED09D
:1037900094F845309B0707D0F5682DB104223368B3
:1037A00004F184011046A847236E83B3736873B392
:1037B0004FF0FF3336AF47F8C43D04F180090422CF
:1037C0004946384600F000F940B1FEF738FF28B10D
:1037D000D6E90035042249461044A84704F168059B
:1037E00004222946384600F0EFF880B17768FEF7EA
:1037F0001FFF3368142204F16C010830B847776862
:10380000FEF716FF0422336829461044B847012307
:1038100088F802300F2384F84630B5E694F8183162
:10382000002B7FF4F3AC636D032B10D801230BAA9C
:10383000009308A904232046FFF7B7FB41F20303D6
:1038400098427FF475AD0B9BC4F89030DEE4432BB7
:103850001AD801230BAA009308A940232046FFF79A
:10386000A4FB41F2030398427FF462AD0BAD04F177
:1038700094021BAF2B4603CBBB42106051601D4628
:1038800002F10802F6D1C1E4472B4FF00103009387
:1038900017D804230BAA08A92046FFF786FB41F29C
:1038A000030398427FF444AD0B9BC4F8D430DAF89C
:1038B0003820002A3FF4F6AC526C9A427FF6A6AC50
:1038C000F0E440230BAA08A92046FFF76EFB41F263
:1038D000030398427FF42CAD04F1D80C67460BAB80
:1038E0001BAD1A4603CAAA42CCF80000CCF804105B
:1038F00013460CF1080CF4D12846FCF717FD4822BA
:1039000004F190012846FCF727FD2846FCF726FD28
:10391000DAF83830394603F124020092043304F116
:10392000F8022846FCF78AFC28B1152341F206006C
:1039300084F84630FCE4012384F818310DE594F84E
:103940004430002B7FF4BCAC00930BAA402308A9A1
:103950002046FFF72AFB41F2030398427FF4E8ACCC
:10396000E06CFCF7FBFC94F8183173B104F1B4037C
:10397000009304F19403E06C13AA0BA9FCF75EFC1E
:10398000C8B1002388F80330CFE7FEF74DFE30B111
:10399000DAF8383003F1240200920433EBE7E56CE7
:1039A000FEF7BEFE0746FEF7BFFE3B46009013AA99
:1039B0000BA92846E2E7012388F8033084F8443055
:1039C0007EE400BFE320BBDE30B50024A24201D17B
:1039D000002007E0035D01340D1915F8015CAB42CE
:1039E000F4D0581B30BD431E0A4410B5914200D19B
:1039F00010BD11F8014B03F8014FF7E7884201EBC6
:103A0000020310B507D8421E99420AD011F8014BA3
:103A100002F8014FF8E78342F5D98118D21AD34250
:103A200000D110BD13F8014D01F8014DF7E7024434
:103A30000346934200D1704703F8011BF9E70000E9
:103A4000F8B500BFF8BC08BC9E467047F8B500BF8B
:103A5000F8BC08BC9E46704707B0CD5E0100000070
:103A600003000A01083D00000040000000000800BB
:103A700070000100E9000000ED000000CD29000009
:103A8000052B0000372B0000B03C000013B779FA7B
:103A9000C925DDB7ADF3CFE0F1B614B801010000E0
:103AA00000000000043D00004000000003000A0187
:103AB0000000000000000000000000000000000006
:103AC00000000000000000000000000001020300F0
:103AD000280000002800000000200000000008006E
:103AE000F83A00000400000001000000010000009E
:103AF00000800400000003004546523332000000FD
:103B0000FFFFFFFF000000010000000000000000B8
:103B100000000000FFFFFFFFFFFFFFFFFFFFFFFFB1
:103B2000FFFFFFFF00000000FFFFFFFFFFFFFFFFA1
:103B3000BCE6FAADA7179E84F3B9CAC2FC6325514F
:103B40006B17D1F2E12C4247F8BCE6E563A440F2E2
:103B500077037D812DEB33A0F4A13945D898C29627
:103B60004FE342E2FE1A7F9B8EE7EB4A7C0F9E16E4
:103B70002BCE33576B315ECECBB6406837BF51F595
:103B8000FFFFFFFF00000001000000000000000038
:103B900000000000FFFFFFFFFFFFFFFFFFFFFFFC34
:103BA0005AC635D8AA3A93E7B3EBBD55769886BC8A
:103BB000651D06B0CC53B0F63BCE3C3E27D2604BE1
:103BC000003B0000C00000000000000000001000EA
:103BD0002000000010141C20304020404040408055
:103BE00080401014202040402067452301EFCDABDA
:103BF0008998BADCFE10325476C3D2E1F00000009E
:103C0000000000000000000000C1059ED8367CD5F1
:103C1000073070DD17F70E5939FFC00B31685815A2
:103C20001164F98FA7BEFA4FA46A09E667BB67AEB5
:103C3000853C6EF372A54FF53A510E527F9B056895
:103C40008C1F83D9AB5BE0CD198000000000000021
:103C50000000000000000000000000000000000064
:103C60000000000000000000000000000000000054
:103C70000000000000000000000000000000000044
:103C8000000000000000000000000000FD0707FD2C
:103C9000551A0000851A00002D1B0000211B000092
:103CA000B814B6F1E0CFF3ADB7DD25C9FA79B71393
:103CB00000010000E92D0000E92B0000212C00008C
:103CC000892D0000C52D0000532F0000392F000062
:103CD000632F0000112E0000972C0000F92C00002B
:103CE000A11B0000B11B0000CF1B0000011C000045
:043CF00000000000D0
:103CF4001D19000055190000650000004100000076
:04000003000000A158
:00000001FF
