:1000000000800020D1010000CD010000210200008D
:10001000CD010000CD010000CD010000CD010000A8
:10002000CD010000CD010000843C0000CD010000A6
:10003000CD010000B83C0000CD010000CD01000062
:1000400010B5054C237833B9044B13B1044800E0D4
:1000500000BF0123237010BD20010020000000001C
:10006000503E000008B5034B1BB10349034800E0B4
:1000700000BF08BD0000000024010020503E000029
:10008000044B054A9A60D3F8882042F47002C3F802
:100090008820704700ED00E000000000084B1B6F57
:1000A00003F00703022B04D0032B05D0012B05D04E
:1000B000FEE7044B18687047034BFBE703487047A3
:1000C000008000400401002008010020002D3101C3
:1000D00008B5FFF7E3FF054B1B6FC3F30133013393
:1000E000B0FBF3F0024B186008BD00BF0080004079
:1000F000000100200048704700B4C404014B186898
:10010000704700BF08010020014B1868704700BF0E
:1001100004010020014B1860704700BF040100205B
:100120000020704700487047002D3101174B986838
:10013000C0F304400C2826D8DFE800F00925252567
:100140002525071B1D251F212300114870479B688B
:1001500003F04073B3F1807F07D0B3F1007F06D086
:100160000C4A002B08BF104670470B4870470B48DD
:1001700070470B4870470B4870470B4870470B4857
:1001800070470B4870470020704700BF0040014A8D
:10019000405DC60000093D0080841E0040420F0003
:1001A0000024F400C0EA210180BA8C010048E80173
:1001B000005A62024FF4004070474FF47A70704763
:1001C000014B1868704700BF0C010020FEE70000DB
:1001D00008B5FFF755FF00F0A1F80A4A0A4B0B4992
:1001E0008B4206D300210A4B0A4A934206D300F001
:1001F0001BF852F8040F43F8040BF1E743F8041B13
:10020000F3E700BF503E0000000100202001002065
:1002100020010020BC4E002002F0F2B802F040B9EC
:100220004FF4017002F0CABD07B501A800F0E6FE68
:10023000304B9B6DDB0318D42F4A136823F4FF0364
:1002400023F4FE4343F4BC1343F4A063136052F859
:10025000043C23F4704343F4404342F8043C52F816
:10026000043C43F4E06342F8043C9DF80530012B64
:100270000FD19DF8043063B94FF000531B681F4B3A
:100280001B681F4B1B681F4B1B681F4B1B681F4BBA
:100290001B681F4A0421D2F88030002043F003037A
:1002A000C2F8803000F04AFC1A4800F055FDFFF714
:1002B000B3FF02F07CFD02F0E3FA30B940F2012016
:1002C00002F07CFD4FF401700AE0134B0193019B97
:1002D000002B0BDC40F205439842F3D140F203209F
:1002E00002F06CFD002003B05DF804FB019B013BB4
:1002F000ECE700BF00C0004034C0004000400020D8
:100300000080002000C000200000012000400120EB
:100310000080004000B4C40400350C0008B54FF064
:100320004023D3F894305B060BD4012344F204023B
:100330001268013214D1BDE808404FF4027002F097
:100340002FBD02F053FDA0F2022080B20728ECD8A6
:10035000012303FA00F010F0C90F18BF0023E5E7EE
:1003600093B14FF4804002F0FBFB0028E3D04FF440
:100370008043064A93601846016881F3088881F338
:10038000098840688746FEE708BD00BF00ED00E031
:100390000020704730B501240025074B01445C6004
:1003A0009D601A611A46DC60884201D1586A30BDEE
:1003B00010F8014B1462F7E7008008402DE9F04780
:1003C00098B0884617469946209E824600285DD000
:1003D00000295BD0002A59D0002B55D02D4D2E4B33
:1003E000002E08BF1D461C22002111A803F035FC79
:1003F0002A4B18AC44F8203D2946204600F0B1FDB8
:100400002021204600F0ADFD0122254BCDF80490BF
:1004100002920393049605920693B9F1000F08D057
:100420003EB101A9204600F088FD04A9204600F055
:1004300084FD01261A4D07A92046CDF81CA0089678
:10044000099500F07AFD0AA92046CDF828800B9680
:100450000C950D970E960F9500F06FFD0DA9204697
:1004600000F06BFD204600F085FD4FF098435A6C7C
:10047000D202FCD55B6D40F2046013F4702F08BF0C
:10048000002018B0BDE8F087034DACE740F20160F2
:10049000F7E700BF1F2400801F24FC840000010632
:1004A0002000002010B5044602F034F92046BDE8D3
:1004B0001040002102F058B902F060B9014602F084
:1004C0005FB900002F4B984245D017D82E4B984269
:1004D00038D007D82D4B984234D02D4B984231D08C
:1004E000002070472B4B98422FD02B4B98422FD097
:1004F0002A4B9842F4D12A4B586E7047294B9842A8
:1005000034D00FD8284B984228D0284B984229D075
:10051000A3F53703A3F5D8539842E1D1204BD3F884
:1005200080007047224B984224D003F5740303F5F2
:100530001053984222D01F4B9842D1D1184BD3F878
:1005400090007047164B986D7047154B186F7047A9
:10055000134B586F7047124B986F7047104BD3F87E
:10056000840070470E4BD3F8880070470C4BD3F8CB
:100570008C0070470A4BD3F894007047084BD3F8AF
:1005800098007047C0EA210100093D0040420F0079
:1005900080841E00405DC6000024F400C0CF6A00C5
:1005A0000080E00F006CDC020048E80180D54302C7
:1005B0000090D003007E560338B5124B0546D3F8A1
:1005C00020310C4603F00703013B032B17D8DFE86B
:1005D00003F0020A0E12FFF797FD042305B128600D
:1005E00004B1237038BDFFF789FD0323F6E7FFF759
:1005F0009DFD0523F2E7FFF795FD0223EEE70023BB
:100600001846EBE70080004037B50C460021114B3F
:100610000191D3F88031054603F00303022B0ED07D
:10062000032B11D0012B03D101A8FFF7C5FF0D212A
:100630000DB1019B2B6004B1217003B030BDFFF7F9
:1006400075FD05210190F3E7FFF76CFD0221019094
:10065000EEE700BF0080004038B5104B0546D3F8E8
:1006600040310C4603F00303022B0BD0032B0DD0BB
:10067000012B0FD1FFF79EFD082305B1286004B1BF
:10068000237038BDFFF79CFD0723F6E7FFF795FDC4
:100690000923F2E700231846EFE700BF008000407F
:1006A00038B5104B0546D3F860310C4603F0030310
:1006B000022B0BD0032B0DD0012B0FD1FFF77AFDAE
:1006C000082305B1286004B1237038BDFFF778FD19
:1006D0000723F6E7FFF771FD0923F2E70023184629
:1006E000EFE700BF0080004038B5134B0546D3F854
:1006F00000320C4603F00703013B032B18D8DFE858
:1007000003F0020A0E12FFF755FD082305B1286019
:1007100004B1237038BDFFF753FD0723F6E7FFF759
:100720004CFD0923F2E7FFF7D3FC0C23800AEDE729
:1007300000231846EAE700BF0080004038B5134B9D
:100740000546D3F808320C4603F00703013B032BA0
:1007500018D8DFE803F0020A0E12FFF72BFD08237A
:1007600005B1286004B1237038BDFFF729FD0723C8
:10077000F6E7FFF722FD0923F2E7FFF7A9FC0C23B8
:10078000800AEDE700231846EAE700BF008000403A
:1007900038B5104B0546D3F840320C4603F003033E
:1007A000022B0BD0032B0DD0012B0FD1FFF702FD35
:1007B000082305B1286004B1237038BDFFF700FDA0
:1007C0000723F6E7FFF7F9FC0923F2E700231846B1
:1007D000EFE700BF0080004038B5104B0546D3F866
:1007E00000310C4603F00303022B0BD0032B0DD07A
:1007F000012B0FD1FFF782FC032305B1286004B160
:10080000237038BDFFF7DCFC0723F6E7FFF788FC11
:100810000623F2E701230020EFE700BF008000403D
:1008200041F671320F4B10B5D969DA639A680E4CF4
:1008300022F44012A04288BF42F480129A600B4A10
:100840000B4CD2F81832A04223F0020388BF43F0C9
:10085000020301F48031C2F8183211B10022014BB9
:10086000DA6310BD00000340C017530200C0074008
:1008700080F0FA0208B5FFF73DFCBDE80840FFF73D
:10088000CFBF000002280CD007D8012814D10B4B91
:10089000186FC0F3013001307047032807D00E28CD
:1008A000F4E7064BD3F89000C0F30460F3E7034B82
:1008B000186FC0F38020EEE70020ECE700800040D6
:1008C000002307B50193242817D8DFE800F0131A96
:1008D0001D262B353A3F44494E5358661A3F16168B
:1008E000441A262B26351A3F26663A3A3A3A2626E5
:1008F00026494E00FFF7D2FB0190019803B05DF846
:1009000004FBFFF7E5FBF7E7FFF7C8FB0246022011
:10091000FFF7B8FFB2FBF0F0EEE7FFF7D9FB0246B6
:100920000320F5E7FFF7D4FB02460320FFF7AAFFF9
:10093000B2FBF0F04008DFE7002101A8FFF764FEFA
:10094000DBE7002101A8FFF737FED6E7002101A869
:10095000FFF782FED1E7002101A8FFF7A1FECCE757
:10096000002101A8FFF7C0FEC7E7002101A8FFF79B
:10097000E5FEC2E7002101A8FFF72EFFBDE7094B06
:10098000D3F8803003F00303022BBAD0032B01D03D
:100990000020B1E7FFF7CAFBAEE7002101A8FFF78F
:1009A000F7FEAAE70080004002280AD002D80128FA
:1009B00004D0704703280FD00E2815D1084600F048
:1009C0002BB80A4A0139D2F8903023F0F85343EAA1
:1009D0000161C2F890107047044A0139136F23F483
:1009E000806343EA81211167704700BF00800040A7
:1009F00002210320FFF7D8BF08B50120FFF760FFF1
:100A0000BDE80840034988428CBF02210121032030
:100A1000FFF7CABF80F0FA0210B50446FFF72AFFBD
:100A2000FFF7E6FF074A013C106F20F4405040EA10
:100A300004301067FFF74CFBFFF7F2FEBDE81040F3
:100A4000FFF7DABF00800040002307B58DF80730BC
:100A5000242822D8DFE800F013212121212C32386C
:100A60003E444A505669213821213E212121212C22
:100A70002138216932323232212121444A002E4B61
:100A80001B6F03F00703013B032B06D8DFE803F0DD
:100A90000E020A0C04238DF807309DF8070003B0FE
:100AA0005DF804FB0323F6E70623F4E70223F2E7ED
:100AB0000DF107010020FFF7A7FDEEE70DF107019B
:100AC0000020FFF779FDE8E70DF107010020FFF7AF
:100AD000C3FDE2E70DF107010020FFF7E1FDDCE7D0
:100AE0000DF107010020FFF7FFFDD6E70DF107012B
:100AF0000020FFF723FED0E70DF107010020FFF7EC
:100B00006BFECAE70C4BD3F8803003F00303022BD3
:100B100003D0032B05D00023BDE7FFF7D9FA0B2341
:100B2000B9E7FFF703FB0523B5E70DF10701002047
:100B3000FFF72EFEB1E700BF0080004070B50C4605
:100B4000242848D8DFE810F0250047004700470078
:100B500047005B006C007D008E009F00B000C1006C
:100B6000D200E30047007D00470047008E004700A9
:100B70004700470047005B0047007D004700E30057
:100B80006C006C006C006C004700470047009F0041
:100B9000B0008B1E042B2FD8DFE803F02B1E032E92
:100BA000280000250226FFF765FEFFF721FF604AB7
:100BB000136F23F0070333431367FFF789FAFFF737
:100BC0002FFEFFF719FF35B9032C04D142F2280399
:100BD0000121584AD15070BD41F228020121554BE4
:100BE00003269D6A9950C5F34005DCE700250426DD
:100BF000D9E700250126D6E700252E46D3E78C1E2F
:100C0000E4B20B2C8CBF00214B4B494A98BF195DB5
:100C1000D2F8803123F003030B43C2F88031DAE7C6
:100C20008C1EE4B2032C8CBF0021444B404A98BF79
:100C3000195DD2F8203123F007030B43C2F82031AD
:100C4000C9E7CC1FE4B2022C8CBF00213C4B384AD0
:100C500098BF195DD2F8403123F003030B43C2F86B
:100C60004031B8E7CC1FE4B2022C8CBF0021354BD9
:100C70002F4A98BF195DD2F8603123F003030B436C
:100C8000C2F86031A7E7CC1FE4B2052C8CBF00216D
:100C90002D4B274A98BF195DD2F8003223F0070385
:100CA0000B43C2F8003296E7CC1FE4B2052C8CBF90
:100CB0000021264B1E4A98BF195DD2F8083223F056
:100CC00007030B43C2F8083285E7CC1EE4B2042CBC
:100CD0008CBF00211E4B164A98BF195DD2F8003117
:100CE00023F003030B43C2F8003174E705290CD04D
:100CF0000B290CBF022100210D4AD2F8803023F0CD
:100D000003030B43C2F8803065E70321F4E7CC1FEF
:100D1000E4B2022C8CBF00210E4B054A98BF195D2E
:100D2000D2F8403223F003030B43C2F8403252E7BB
:100D30000080004000C00040F83C0000043D00007E
:100D4000083D0000083D00000B3D00000B3D000089
:100D5000113D0000083D000038B50546FFF7B2FB25
:100D600042F20402194B04469958012903D19950C3
:100D70009A699207FCD12846FFF7CCF90020FFF7CB
:100D800063FE042803D1FFF775FDFFF731FE104B1A
:100D900024F040749D4211D00E4B9D4211D00E4B59
:100DA00000209C60FFF750FE04280DD1FFF790F95A
:100DB000FFF736FDBDE83840FFF71EBE44F0007473
:100DC000EDE744F08074EAE738BD00BF00C00140A1
:100DD00040420F0080841E000000014070B50D4CA1
:100DE0000D4E0E4DF36913EA050208D00C4A1A4065
:100DF000002A14BF6FF001004FF0FF3070BD0340B8
:100E00008B4204D0013CEDD16FF00200F6E71046B2
:100E1000F4E700BF80969800000003400600010040
:100E20000200010070B5134C6061E06943071DD4F6
:100E30000E1D0968151FA1615DB9042329462361B0
:100E40002120FFF7CBFF58B9BDE870402120FFF704
:100E5000C5BF08210846FFF7C1FF10B10423236175
:100E600070BD56F8043B043DA361E5E74FF0FF3049
:100E7000F6E700BF0000034038B541F671330E4C71
:100E80000122E569E36341F20C03E2500223606151
:100E900000212361212005F48035FFF79FFF18B959
:100EA00001462120FFF79AFF42F20C030122E25093
:100EB0000DB10023E36338BD000003402DE9F84382
:100EC000154641F67132164B8846DF690121DA6317
:100ED00041F20C020646DFF84C9007F48037995037
:100EE00055B9284642F20C0201210D4B99500FB121
:100EF0000022DA63BDE8F88306F5005404EA090429
:100F0000A41BAC4228BF2C46414622463046FFF780
:100F100089FF0028E6D12644A0442D1BE0E700BF4E
:100F20000000034000E0FFFF4FF098435A6CD202EC
:100F3000FCD5586D00F470207047436813B94160C8
:100F400070475B685A68012AFBD159607047836813
:100F500013B9816070475B685A68012AFBD15960F8
:100F60007047C369032B9FBF00EB83020133D1603D
:100F7000C3617047C369042B15D84FF09842116CB8
:100F8000C902FCD504339B0013650168103B116056
:100F900041680C30116050F8041C034411604FF09C
:100FA0009842984200D1704750F8041B1160F8E74E
:100FB000F0B515460F4C104A8DB0002B08BF1446F3
:100FC00007461C220E4605A8002102F046FE01231A
:100FD00001A904A83C4345F00055019604940293EE
:100FE0000395FFF7B4FF04A8FFF7C4FFFFF79CFFCA
:100FF0000DB0F0BD01000AFF010008FF054B5B6961
:10100000C3F38512827003F03F021B0B4270037022
:10101000704700BF00C00740826C2DE9F041531EAD
:10102000B3F5887F1BD8D0E9093CD0E90B57C91A22
:1010300091424469866B28BF11462FB9C768A7EB58
:10104000050E8E4598BF07630F460D44521AC562C0
:101050008264E51806EB040E1FB919444162BDE82D
:10106000F0812A1B96428CBF62460022A5EB0E0837
:10107000224412F80820013F05F8012BECE72DE986
:10108000F04F044693B009910F92236BD4F82CA033
:101090000893636A0193089B002B40F0A280E368E9
:1010A000099A0199A3EB0A03521A9A4240F29980D5
:1010B0000B444FF0FF37D4E90DB9D4E90626A568F3
:1010C0000A9307FA05F5ED4310956568E36B07FA97
:1010D00005F5ED43119500250293236C21690393D7
:1010E000636C0D950493236801F244650E93636964
:1010F00006950593A36A0793236A109DB6F1807F36
:1011000005EA0A084FEA0B1508EB050E0B953CBFE4
:101110001578360231F81E7038BF45EA03234FEACE
:10112000D62507FB05F538BF01329D4240F2B88055
:10113000C7F5006607EB561721F81E7001F66C6CB8
:10114000BAF1000F01D1089EAEB1119E01980AEAD2
:1011500006070E9EB740002845D1079E013E059820
:10116000865D0E98C0F1080E46FA0EF637444FF42D
:10117000C06606FB07CCBBF1060F0AF1010A3FD897
:101180000126BBF1030F94BFABEB0B0BABF1030BD1
:10119000B5F1807F38BF92F800E04FEA460638BFCD
:1011A0002D023CF8067038BF4EEA03234FEAD52ED5
:1011B00007FB0EFE38BF01329E450CEB060815D921
:1011C000C7F5006507EB55177546A8F80070FF2EA8
:1011D000DED90598019FC65538462E46013001904C
:1011E000B4E1099B65E70198461EB8E7A7EB5717DE
:1011F000A5EB0E05A3EB0E03A8F800700136E6E799
:101200000198019FA0EB090607984FF480784F459D
:1012100028BF002007460598BBF1090F0644F05D82
:101220008CBF06260326ABEB060B01260B900B9812
:10123000B5F1807F4FEA400008EB06070B9000EA0B
:10124000080038BF92F800E0074438BF2D020C9028
:101250000CEB47003CF8177038BF4EEA03234FEA07
:10126000D52E07FB0EFE38BF01329E454FEA4606DB
:101270000BD9C7F5006507EB5517754607800C9825
:1012800028EA0008FF2ED2D9A3E7A7EB5717A5EB52
:101290000E05A3EB0E0307800136DDF83080F1E781
:1012A000761BA7EB5717B6F1807F21F81E70A3EBD2
:1012B00005030BF1C00C3CBF1578360231F81C70E9
:1012C00038BF45EA03234FEAD62507FB05F538BFAB
:1012D00001329D424FEA4C0E40F2DA800498C7F585
:1012E00000660C90039807EB56170490029821F8BB
:1012F0001C70CDE902900BF10C0B01F26467B5F1A3
:10130000807F3CBF16782D02B7F800C038BF46EA90
:1013100003234FEAD5260CFB06F638BF01329E4266
:1013200040F28B814FF0000ECCF500650CEB551CA4
:10133000A7F800C007EB081704374FF0080901258C
:10134000B6F1807F38BF92F800804FEA450538BF7C
:10135000360237F805C038BF48EA03234FEAD628DB
:101360000CFB08F838BF0132984507EB050040F246
:101370009781CCF500660CEB561C4646A0F800C0E1
:101380004D45DDD3AEEB090E0EEB0500BBF10B0FA7
:101390000B9040F2BC82032888BF4FF49C6E4FF044
:1013A00001059CBF4FEAC01E0EF5587EB6F1807F46
:1013B0004FEA450538BF92F800C00EEB050838BF6C
:1013C000360231F8087038BF4CEA03234FEAD62CB6
:1013D00007FB0CFC38BF01329C4540F26B81C7F51E
:1013E000006607EB5617664621F808703F2DDDD9D9
:1013F000403D032D3DD905F0010C0D2D4FEA550759
:101400004CF0020C00F26E814FF0010EC5F52B7905
:10141000013F0CFA07FC09F10309E1444FEA4900D6
:101420006546F1460D900D98B6F1807F4FEA4E0E5D
:1014300038BF92F80080704438BF360231F800C0DF
:1014400038BF48EA03234FEAD6280CFB08F838BF18
:10145000013298450C9040F23781CCF500660CEBD8
:10146000561C46460C9821F800C0013F4FEA490936
:10147000D9D1089805F10109002840F03482AA4525
:1014800000F23482019B6362012013B0BDE8F08F4B
:101490000898A7EB5717761B5B1B21F81C7010B937
:1014A000BAF1000FF0D0B6F1807F38BF15780EF199
:1014B000180C38BF360231F80C7038BF45EA0323E8
:1014C0004FEAD62507FB05F538BF01329D4260D9AA
:1014D000C7F500660B9807EB5617B5F1807F21F82A
:1014E0000C7000F1F00C38BF1678C44438BF2D02E0
:1014F00031F81C7038BF46EA03234FEAD52607FBB4
:1015000006F638BF01329E422AD90198C7F5006518
:1015100007EB551721F81C70A0EB0905019F0798F0
:101520000AF1010A4F4528BF002007460598BBF184
:10153000060F0544ED5D019F88BF4FF00B0BC555AD
:10154000384698BF4FF0090B013001900A98019D71
:10155000A84240F263810F9890423FF6CEAD5DE124
:10156000AD1B9B1B029ECDF80890B146A7EB571709
:1015700021F81C700498BBF1060F0C9003988CBFE7
:101580004FF00B0B4FF0080B01F66827CDE90390E5
:10159000B5E6761BA7EB5717B6F1807F21F80C70E4
:1015A000A3EB05030EF1300C3CBF1578360231F881
:1015B0000C7038BF45EA03234FEAD62507FB05F533
:1015C00038BF01329D4206D9C7F5006607EB5617B2
:1015D00021F80C70CEE7761BA7EB5717B6F1807F8A
:1015E00021F80C70A3EB05030EF1480E3CBF1578F3
:1015F000360231F80E7038BF45EA03234FEAD6258C
:1016000007FB05F538BF01329D420AD9C7F50066D0
:1016100007EB561721F80E70DDE902600290039681
:10162000A8E704985B1B751B029E02900398A7EB2A
:10163000571721F80E700490F1E7AD1BACEB5C1C62
:10164000B5F1807FA7F800C0A3EB06033CBF167876
:101650002D02B7F802C038BF46EA03234FEAD52669
:101660000CFB06F638BF01329E420CD9CCF5006562
:101670000CEB551CA7F802C007EB081707F582779B
:101680004FF0080E59E6ACEB5C1C9B1BA7F802C0A0
:10169000AE1B07F501774FF0100E4FF480794EE640
:1016A000ACEB5C1CA6EB0806A3EB0803A0F800C09B
:1016B000013565E6A7EB5717A6EB0C06A3EB0C0369
:1016C00021F80870013591E60C98ACEB5C1CA6EB98
:1016D0000806A3EB080321F800C00EF1010E45EA4D
:1016E0000905C2E6053FB6F1807F3EBF1578360298
:1016F00045EA03234FEA5606A3EB06034FEAE375D8
:1017000005EB4C0C38BF01323540013F0CF1010CA8
:101710002B44E8D1B6F1807F3CBF177836024FEA00
:101720000C15B1F846C638BF47EA03234FEAD6275F
:101730000CFB07F738BF01329F4240F2AA80CCF57C
:1017400000660CEB561C0226A1F846C60698B7F1B7
:10175000807F4FEA460C30F816E03EBF16783F0215
:1017600046EA03234FEAD7260EFB06F638BF0132BE
:101770009E4200EB0C0840F29680CEF500670EEB1F
:10178000571EA8F800E0B6F1807F069838BF17789A
:101790004FEA4C0E38BF360230F81CC038BF47EA5B
:1017A00003234FEAD6270CFB07F738BF01329F42CD
:1017B00000EB0E0840F28280CCF500660CEB561C64
:1017C000A8F800C0B7F1807F06983CBF16783F02AA
:1017D0004FEA4E0C30F81EE038BF46EA03234FEACA
:1017E000D7260EFB06F638BF01329E4271D9CEF5E0
:1017F000006706980EEB571E20F80CE0681C7FF47B
:1018000038AE0B99ABF10C0B01F589710D91DDE947
:1018100002910291049903910C990491B6F1807F91
:101820003EBF1178360241EA032323620D9B38BF85
:101830000132A364019BC4E906266362029BC4F8DB
:101840002CA0E363039BC4F838902364049BC4F882
:1018500034B06364236B1BB9E368534598BF2363BB
:1018600009992046FFF7D8FB636A099A9342A36C53
:1018700007D2A2690F998A4203D2B3F5897FFFF498
:1018800004ACB3F5897F02D94FF48973A3640020B7
:10189000FBE5ACEB5C1CDB1BA1F846C6F71B45F077
:1018A0000105032652E7AEEB5E1E9B1BA8F800E085
:1018B0000CF1010C45F00205BE1B64E7ACEB5C1CAF
:1018C000DB1BA8F800C00EF1010E45F00405F71B64
:1018D00078E70698AEEB5E1E9B1B20F80CE045F007
:1018E0000805BE1B8AE70898A842C9E5BBF1120F9C
:1018F0008CBF4FF00A0B4FF0070B0A98019F0B9D0E
:10190000B0EB070C05F1020509D13B46BBE5DDE96B
:1019100002900290049803900C980490EDE70198CF
:10192000019FA0EB09080798AC4528BFAC464F457E
:1019300028BF002047460744A5EB0C000D900798F0
:10194000E244C51BAC450598019D05440CD801989F
:1019500005EB0C0E3F1A6044019015F807C005F81E
:1019600001CBAE45F9D1F1E5E646059810F80780C0
:1019700007980137B84208BF0027BEF1010E05F8ED
:10198000018BF2D10198604429E42DE9F047D0E9B8
:10199000075301278468D0F82CE0A740D0F834C062
:1019A000013F066907EA0E0707EB0C18B5F1807FC7
:1019B0000A4436F8189007D2914280F0E3810C78FF
:1019C0002D0244EA03230131EC0A09FB04F4A3428B
:1019D0007BD2056B06F66C6615B9BEF1000F19D007
:1019E000D0E900850127AF40013F07EA0E0707FA5B
:1019F00008F5476AD0F814E007B9876A013F1EF876
:101A00000770C8F1080847FA08F72F444FF4C0657B
:101A100005FB0766BCF1060F20D801204000B4F199
:101A2000807F355A07D2914280F0AC810F78240232
:101A300047EA03230131E70A7D43AB4223BF01306C
:101A4000641B5B1B2C46FF28E8D90120B4F1807F82
:101A500080F02881914228BF002023E1876BD0F8D5
:101A600024C04569BC45ACEB070E2CBF0027876A34
:101A700005EB0E0010F807C001204FF480774FEA05
:101A80004C0C07EA0C0E3D187544B4F1807F36F813
:101A9000155008D2914280F0758191F8008024029F
:101AA00048EA032301314FEAD42805FB08F540003A
:101AB000AB422DBF013027EA0E072C46641B24BF22
:101AC0005B1B7746FF28DAD9BFE7281B0CF1C00C57
:101AD000B0F1807FA3EB04034FEA4C0436F81CC03E
:101AE00007D2914280F04E810D78000245EA03232F
:101AF0000131C50A0CFB05F5AB4280F0A480022041
:101B00004FF0000C06F2646EB5F1807FBEF80080E5
:101B100007D2914280F036810C782D0244EA0323EB
:101B20000131EC0A08FB04F4A34280F0EF800EEBD5
:101B3000071707F1040E00274FF008094FF00108BE
:101B40004FEA4808B4F1807F3EF8085008D291422D
:101B500080F0188191F800A024024AEA03230131A1
:101B60004FEAD42A05FB0AF5AB4223BF08F101086E
:101B7000641B5B1B2C46C845E2D3BCF1030F3FF648
:101B800065AFA7EB09074744032F88BF4FF49C6755
:101B90004FF001059CBFFF0107F558776D0006EB7C
:101BA000050CB4F1807F3CF807C008D2914280F068
:101BB000E98091F800E024024EEA032301314FEA64
:101BC000D42E0CFB0EFC634523BF0135A4EB0C04A3
:101BD000A3EB0C0364463F2DE0D9403D032D7FF677
:101BE00035AF0D2D4FEA550700F2B28005F0010C1C
:101BF000013F4CF0020CC5F52B750CFA07FC0335C0
:101C0000654406EB45064FF0010C4FEA4C0CB4F16D
:101C1000807F36F80C5008D2914280F0B38091F862
:101C200000E024024EEA032301314FEAD42E05FBE3
:101C30000EF5AB4223BF641B5B1B0CF1010C2C4661
:101C4000013FE2D102E7401B3444B0F1807FA3EBB7
:101C50000503B4F818C007D2914280F093800D7844
:101C6000000245EA03230131C50A0CFB05F5AB422E
:101C700022D208F1F008B5F1807F36F8180006D2BC
:101C800091427FD20C782D0244EA03230131EC0A01
:101C90006043834208D2B0F1807F71D2914234BF59
:101CA00003200020BDE8F0872D1A1B1A06F6682EC7
:101CB00003204FF00C0C27E7401BB0F1807FA3EB13
:101CC0000503B4F830C006D291425BD20D78000211
:101CD00045EA03230131C50A0CFB05F5AB42E5D308
:101CE000401BB0F1807FA3EB0503B4F8485006D247
:101CF000914247D20C78000244EA03230131C40A1E
:101D00006543AB4224BF5B1B451BCFE72D1BB5F1E1
:101D1000807FA3EB0403BEF8028006D2914231D249
:101D20000C782D0244EA03230131EC0A08FB04F489
:101D3000A34205D20EEB071707F5827E0827FBE6C4
:101D40001B1B0EF5017E2C1B10274FF48079F5E646
:101D5000053FB4F1807F06D2914213D20D78240260
:101D600045EA0323013164081D1BED0F013D2540A9
:101D7000013FA3EB0503ECD106F24466042742E7DA
:101D800003208FE700208DE7002301224362C0E992
:101D900012328365C0E90B33026570472DE9F04FBD
:101DA0009846002785B09DF83830DDF83C90D8F88B
:101DB0000050C8F800700446019116460293FFF7E0
:101DC0002BF989F80070A36CB3F5897F08D1206ADC
:101DD00010B9012389F80030003018BF01203AE023
:101DE000E36C1BB3A36DA5B1042B04D994F85C304C
:101DF0009BB101202FE05A1CA26516F8012B234449
:101E000083F85C20D8F80030013D0133C8F8003079
:101E1000E8E7042BEAD803231AE0D4F85D20E36452
:101E200012BA22624FF0FF32A365E261636A019A3F
:101E3000934213D3A36C002B40F0B180206A18B9F1
:101E4000042389F8003006E0029B002B39D10223DD
:101E5000002089F8003005B0BDE8F08F4FF0000B8E
:101E6000236D9BB1D4E900321A444FF44073934080
:101E70000022216903F23673934225D80123C4E975
:101E80001033C4E90E33002363632365A36D002B75
:101E90005ED1132D02D9BBF1000F22D02A46314664
:101EA0002046FFF772FDA8B92A46314604F15C00CE
:101EB00001F0AFFEA565D8F800002844C8F800007E
:101EC000A9E74FF0010BCBE74FF4806021F8120037
:101ED0000132D1E7BBF1000F01D0022863D13246B5
:101EE00002E0A5F114023244A66101992046FFF7F1
:101EF000C6F800287FF47DAFA369D8F800209E1BA8
:101F00003244C8F80020AD1B1E465CE7D05DE119E5
:101F100081F85C000137132FA7EB030A01D8554560
:101F2000F4D8132FA76504F15C0302D9BBF1000FAD
:101F300016D019463A4620460393FFF726FD039B29
:101F400048B9D8F8007003235744C8F8007078E700
:101F50001F46F21ADFE7BBF1000F01D0022822D1A1
:101F6000A3611A46019920460393FFF788F80028D9
:101F70007FF43FAFA269039BD31A9F420DD3FF1A90
:101F8000BA450AD3D8F80030AAEB07073B44C8F893
:101F90000030ED1BF319A065B6E70B205BE7029B51
:101FA000002B3FF454AF022389F8003021E72DE9DC
:101FB000F04F89B0DDF848809B469DF84C300446D0
:101FC0000393D8F800308A46029300231746166818
:101FD00004931360C8F80030029B149A0793D4E965
:101FE00009318B4208BF049B204608BF6362D4F8C6
:101FF0002490A1EB0903B34232BF0023039B06EBFD
:102000000901CDE900325A4607ABFFF7C7FE079931
:10201000D8F80020029B0A44C8F80020656A5B1AC1
:102020008B446169A5EB090505902A465046494451
:10203000029301F0EEFD3A68059B2A44AA44761B00
:102040003A6013B90DB1002EC6D1184609B0BDE8EB
:10205000F08F10B504464B68084621699847002365
:10206000236110BD70B5D1E9004323444FF440749F
:102070009C4003690546164604F2367413B1436D5D
:10208000A3420AD031462846FFF7E3FF33686100D8
:10209000304698476C65286108B1002070BD022069
:1020A000FCE738B504460D46FFF7D3FF6B6861695E
:1020B000284698470023636138BD042A01D80420CC
:1020C0007047D1F80130B3F5805F38BF4FF48053CB
:1020D000C3600A78E02AF2D80923B2FBF3F303EBDA
:1020E000C301511AC9B201602D21B2FBF1F2826025
:1020F0000522DBB2B3FBF2F202EB82029B1ADBB2E7
:102100004360002070470000F0B585B06E4604467D
:1021100030461F46FFF7D1FF60BB3A4631462046A6
:10212000FFF7A0FF30BB039A174DB2F1804F06D2E4
:1021300040F6FF71154BAA4294BF0D461D46AB18E1
:1021400023EA05056169954238BF154611B1A36AB6
:10215000AB4211D07B68384698470023294663611B
:1021600038463B689847606130B920463946FFF7EA
:1021700070FF022005B0F0BD96E80F00A56284E86C
:102180000F000020F6E700BFFFFF3F00FFFF0F003A
:102190000A4B186830B9B1F5205F0DD80122084804
:1021A0001A607047012806D1B1F5005F03D80222FA
:1021B00004481A6070470020704700BF3C010020AF
:1021C000B4210020B001002031B1044A1368002B73
:1021D000C4BF03F1FF331360704700BF3C01002010
:1021E00002232DE9F04F82468B46174600248BB020
:1021F000DFF8CC80DFF8CC908DF81F309DF81F30D1
:10220000022B06D01FB341F20232012B18BF144635
:102210001DE0D8F80010274CC1F540730893D9F899
:10222000003008AA09930DF11F03CDE9017309AB32
:1022300000932144204B2148FFF7B9FE9DF81F3041
:10224000049440B10FB1022B06D041F20334204672
:102250000BB0BDE8F08F53B3089BD8F80050154978
:102260001D4425F003065B463246504600F07AFED8
:10227000B5420446A5EB060308D01A460593049B15
:102280000C483344194601F0CFFC059B0999C8F866
:102290000030D9F800308B42A3EB010504D9064881
:1022A0002A46014401F0C0FCC9F80050A6E741F2FB
:1022B0000234CCE7B84B0020B44900204001002094
:1022C000B84E0020B44B002008B57022002106480B
:1022D00001F0C3FC01220020044B1A70044B18606B
:1022E000044B186008BD00BF40010020B021002051
:1022F000B84E0020B44B00202DE9F04781465868C5
:102300000F4614469A4630B31D4B1D787DB100220E
:102310001A7051F8043B0522C9F8603019481A4B6D
:10232000FFF7F2FE40BB1748FFF72EFD1125174EB1
:10233000641B3368B046C3F50073A3420DD3D8F8CD
:102340000060134822467919304401F062FC0020F5
:102350003444C8F80040BDE8F087002251464846A2
:10236000FFF73EFF0028F6D13368C3F50073A342A0
:10237000E5D241F20430EEE741F20530EBE700BF71
:10238000B02100204001002010010020B44B0020AB
:10239000B4490020436D002B0CBF11200120704771
:1023A00070B54C6806460D46C4B10122FFF718FF10
:1023B000044698B90C4B1A6862B1FF210B4B032AF3
:1023C0000ED92B4604220949304600F0CBFD08B156
:1023D000044603E006490748FFF763FE204670BD48
:1023E000D1540132EBE700BFB84E0020B84B0020BB
:1023F000100100204001002000487047183D0000F7
:1024000000207047024BD86900F00100704700BF00
:102410000000034008B5034608469918B1F5002F9F
:1024200004D8194601F0F5FB002008BD40F2024037
:10243000FBE78318B3F5002F10B50ED940F2024028
:1024400010BDC45801340AD104339A42F9D800F0BF
:1024500048FA0028F2D00020F2E70023F5E740F226
:102460000340EDE738B541EA0003C3F30C0304462B
:102470009BB90D18B5F5002F08D8204604F5005477
:1024800000F028FAA54204D00028F6D140F202401C
:1024900038BD0028FAD00020FAE740F20440F7E700
:1024A0000020704700207047002070472DE9F04160
:1024B00092B005460F46904600211C220BA81E46EE
:1024C000189C01F0CAFB01214FF000528D42CDF85B
:1024D0000480029103920497059106920796089151
:1024E00009923BD003D3022D4BD0274C32E0274B2F
:1024F00012A8A40140F8203D2146FEF732FD039BBF
:102500001C430394069B43F014030693099B43F07A
:10251000140304A90AA80993FEF70FFD01A90AA84C
:10252000FEF70BFD07A90AA8FEF711FDFFF7BAFF9A
:10253000044678B90AA8FEF71DFD4FF098435A6C7F
:10254000D202FCD55D6DFFF7AFFF114B15F4702F74
:1025500018BF1C46204612B0BDE8F0810D4B12A8F2
:10256000A40140F8203D2146FEF7FBFC039B1C43E1
:102570000394069B43F020030693099B43F020033A
:10258000C7E712A8044BEBE780AFFFFF000201038F
:1025900080ADFFFF00030103000401032DE9F347B1
:1025A00002281446DDE90A9280460E461F464ED8A0
:1025B0001CB9002002B0BDE8F08713683F2B42D859
:1025C000516809B1002F3ED1B8F1010F3DD0224D25
:1025D0002249B8F1020F18BF0D4603F03F00E3187F
:1025E000136022BF53680133536090B3C0F1400AB7
:1025F000544522D331465246484401F00AFB012398
:102600004A46009329463B464046A4EB0A04FFF79E
:102610004DFF3F2C56440DD93D46A3090093324649
:102620003B4629464046FFF741FF24F03F031E4446
:1026300004F03F04002CBCD0002022463146484420
:1026400001F0E7FAB5E73D46C7E7054DC5E70548A0
:10265000B0E73F2CF1D9E0E78A3D00004A3D000099
:102660006A3D000080AFFFFF2DE9F041012886B0F0
:1026700004460E4690461D4604D045D3022841D05C
:1026800022483CE01C272A68CDE90085D3008DF85C
:102690000F3053098DF80E30530B8DF80D30530D5C
:1026A0008DF80C306B682046D90001EB52718DF823
:1026B0000B1002F03F025909372A8DF80A104FEA31
:1026C00053314FEA535394BFC2F13802C2F178023A
:1026D0008DF809108DF808300D493346FFF75EFF7D
:1026E000082233460DEB0201CDE900852046FFF7B5
:1026F00055FF3A4631460C9801F08BFA002006B09F
:10270000BDE8F0812027BEE71427BCE780AFFFFFBC
:10271000AA3D000018B16C22002101F09EBA70475A
:1027200007B590F868300190002B00F12803009362
:1027300000F1080314BF01200220FFF72FFF03B0B0
:102740005DF804FB07B590F868200346002A009165
:1027500000F1280200F1080114BF01200220FFF758
:1027600083FF03B05DF804FB00239942D4BF00212E
:102770000121C0E9003380F868107047FFF7D0BF2F
:10278000FFF7E0BF0068024BC31A58425841704738
:10279000FD0707FD034A044B90420CBF184600207A
:1027A000704700BFFD0707FDEC3D000000207047AB
:1027B00000207047002070470020704728231B68C6
:1027C000186970472823186870474FF40040704715
:1027D0000120704710B5ADF5047D4FF4037201A9D7
:1027E000002001F05BF940F20124002101A801F072
:1027F00098F8A042F9D040F20323984204D040F266
:1028000005400DF5047D10BD9DF8043003F0030272
:10281000022AF4D003F00502042AF0D059070DD49F
:102820009DF804309A071AD4DB07E8D504998098FC
:1028300001F0AAF90028E2D00020E2E70B9800F0AE
:102840001BFA0028ECD0809801F05AF90028E7D054
:10285000FFF7BBFF00F03AFA0028E1D1CFE72822CA
:102860001268029992689142DED9809801F066F967
:102870000028C4D0FFF7A9FF0A9900F0B7F9BEE716
:10288000FFF7A8BF00B591B00023402269464FF47E
:102890008070FEF78DFBB0F5A02F034818BF002015
:1028A00011B05DF804FB00BF4CE3070000B591B028
:1028B0000023402269464FF48070FEF779FBB0F5A3
:1028C000A02F034818BF002011B05DF804FB00BF23
:1028D0006CE3070008B5FEF7CFFAB0FA80F04009C4
:1028E00008BD10B540EA0204A40706D13AB1FEF7CC
:1028F000E5FAB0FA80F0400910BD0020FCE70120A5
:10290000FAE74FF098435A6CD202FCD5586D00F4A8
:1029100070207047F0B585B06C46024626460D4BD8
:1029200003F11007254618685968083303C5BB42F0
:102930002C46F7D104AB501E13F8011D10F8012FDF
:10294000914204D1B342F7D1012005B0F0BD00207F
:10295000FBE700BF003E0000C0F30C032DE9F0418F
:1029600005460F4616460BB9FFF7B4FF05F50054B0
:1029700024F4FF5424F01F0405EB0608A04506D8F4
:10298000324639462846BDE8F041FFF7AABF204647
:10299000FFF7A0FF04F50054F0E738B504460D46F4
:1029A000FFF7B8FF40B16369012B08D1237C012BED
:1029B00005D8A3692B6038BD2C600120FBE70020FF
:1029C000F9E72DE9F0479EB0446B0646FFF7FAFEA3
:1029D00082462046FFF79EFF18B900201EB0BDE8D2
:1029E000F087237C012BF8D83427D7F800804046A5
:1029F000FFF790FF0028F0D0B8F5804FEDD8FFF733
:102A0000D9FE002835D14FF0000902A92046FFF772
:102A1000C4FF0028E1D0029BDAF810209A42DCD8EB
:102A2000B342DAD3B3F5801FD7D803A8FDF73AFD38
:102A3000029A3146921B03A8FDF73EFD03A8FDF75D
:102A40003DFD029DFFF7B6FE2035029E002849D0CD
:102A5000B9F1000F43D0A36B03F1240200920433B9
:102A60002A46314603A8FDF7A9FCB0FA80F04009D8
:102A7000B4E7236913F0FF0F2CD01B0A2AD0A56BF3
:102A800045B33F683846FFF745FF81460028A4D08C
:102A9000B7F5804FA1D8BB6B5A6C6B6C9A429CD82F
:102AA00003A8FDF7FFFC4822294603A8FDF704FD13
:102AB00003A8FDF703FDBB6B05F1480103F12402F8
:102AC0000092043305F1680203A8FDF777FC0028A3
:102AD0009BD082E7FFF770FE002894D07DE7D8F8FE
:102AE0003830B9E7FFF7CEFE0446FFF7DFFE234696
:102AF0000090B5E770B504460E461546FFF762FE36
:102B00000369A3420AD8426963199A4206D32A4646
:102B100031462046BDE87040FFF71EBF70BD2DE96D
:102B2000F041154607468846FFF74CFE0646FFF77C
:102B30004CFEC4196319B3F5801F0FD83FB9FFF7D6
:102B400044FE7369834202D93069FFF7C3FE2A4607
:102B500041462046BDE8F041FFF7FEBEBDE8F081EA
:102B6000F8B5D0E9006706F160460446456BFFF70B
:102B700029FEB6F5C03F01D90020F8BD0369BB426C
:102B8000FAD8B7F5801FF7D84033AB4202D8B5F575
:102B9000801F05D9FDF7FCFB80F00100C0B2ECE717
:102BA000FDF7F6FB20B12046BDE8F840FFF709BF6E
:102BB0002846FFF7AFFEA8B12B7C012BDCD86B6950
:102BC000002BDAD0022BEED1AB69C4F10401194419
:102BD0004FF0FF322046FDF7DDFB034BC31A58428E
:102BE0005841CAE70120C8E7E320BBDE70B54FF0CB
:102BF000FF3290B006460D46FDF7CCFB1B4B9842CA
:102C000031D11C22002101A801F027F8184B10AC8B
:102C100044F8403D20463146FEF7A3F929462046B8
:102C2000FEF79FF92046FEF7A5F9FFF76AFE044676
:102C3000C8B940F2022000F0B3F81C22214609A8CE
:102C400001F00BF80B4B10AC44F8203D3146204608
:102C5000FEF787F929462046FEF783F92046FEF75E
:102C600089F9FFF74EFE002010B070BDE320BBDEF7
:102C700001000543010006434FF0FF3310B58CB04F
:102C80001C220021044605A8009300F0E6FF0D4B2E
:102C9000CDF804D00493012302930B4B01A904A89F
:102CA0000393FEF754F904A8FEF764F9FFF729FE31
:102CB00030B90098A0422CBF002001200CB010BDFC
:102CC0000020FBE7000008430400002030B5054663
:102CD00091B01C22002101A800F0BFFF134B10ACE3
:102CE00044F8403D29462046FEF73BF92046FEF7D2
:102CF00041F9FFF706FE0446A8B940F2022000F0B1
:102D00004FF81C22214609A800F0A7FF084B10AC81
:102D100044F8203D29462046FEF723F92046FEF7D9
:102D200029F9FFF7EEFD002011B030BD000002438D
:102D300000000343B1F5037F10B5044610D34FF4F0
:102D40000372002100F089FF002304F5C87263704C
:102D500004F5A47104F12C00BDE8104000F054B952
:102D600040F2052010BD13B50446009101462C30F9
:102D700000F090F9C4F8080218B141F20703984234
:102D800009D1A3784BB140F2032040F20223E2784C
:102D9000002A08BF184602B010BD40F20120FAE731
:102DA0004FF000534FF20F0218805A8070474FF0D7
:102DB00000534CF23C325A80704700004FF00053F1
:102DC0004FF20F0218805A80BFF34F8F0549064B10
:102DD000CA6802F4E0621343CB60BFF34F8F00BFB9
:102DE000FDE700BF00ED00E00400FA054FF00053DE
:102DF0004FF20F015A888A4201D1188870473AB9B8
:102E00001B8840F20220012B18BF4FF4007070475E
:102E10004FF40070704770B5D1E90152AA4205D253
:102E200090F840302B449B1A402B10D9002012E020
:102E30000A6890F84040D65C90F841200133224463
:102E400002F03F02013486548B6080F840408B686A
:102E50009D42EDD8012070BD2DE9F0411746D1E922
:102E60000125521B90F8405004462A449A420E46CF
:102E70009DF818803FD2FFF7CEFF002845D11523DB
:102E800041F2020084F84630BDE8F08194F8412018
:102E9000A25C7A5594F841200135013202F03F02DC
:102EA00084F8412094F84020013A84F8402094F8B6
:102EB000402012B1AB42E9D11D46D6E901128A4247
:102EC00001D2AB4219D8AB42D9D1D4F888202946D7
:102ED0003846FDF75FFAC4F88800B8F1000F04D057
:102EE0002A463946E06CFDF7E7FA636D41F20300CC
:102EF0001D446565C8E70025D9E731688A5C7A55C5
:102F0000B26801350132B260D7E70020BCE70000AB
:102F10007FB500230093082315460DEB03020446FA
:102F2000FFF79AFF41F203039842064613D1039A32
:102F3000029B6A60094A2B60934208D0084A934278
:102F400005D00822E06C0DEB0201FDF7B5FA6B68C5
:102F5000236500236365304604B070BDF70A0AF7A5
:102F6000FC0404FC2DE9F843044658680D46164657
:102F70001F46002843D08B0743D1FFF71FFC216E6B
:102F800000F1040C06EB0109CC451DD800F11C0230
:102F9000914219D28C45634638BF0B46914594BF88
:102FA000C3EB0909C3EB0209591AA3EB0C0005EBAB
:102FB000010868304A464146204400F02AFE4A464D
:102FC000FF21404600F049FEFFF7FFFB226E031D84
:102FD00093420AD3B1180830814206D39B1AEA58AB
:102FE000C4F880204FF0FF32EA50D7E9003832466B
:102FF000206E2946C0470020236E1E442666BDE889
:10300000F88341F20200FAE72DE9F04100254FF084
:10301000FF3704468846164603F0200380F8423006
:1030200080F84650A0F8405080F8435080F8455052
:1030300080F84450C0F88870C0E918551822FF2164
:10304000683000F00AFEC4F88070C4F88470C4E9E7
:1030500012868822294604F1900000F0FEFD84F8D3
:103060001851FFF7A5FB30B1B8F1000F03D141F2C1
:103070000B00BDE8F081FFF799FB30B1002EF6D0D0
:10308000E06CFDF70FFA0020F3E7002EF8D1304690
:10309000EFE700002DE9F04FB7B0CDE90823342267
:1030A00003930023D2F800A00446BAF5804F884667
:1030B000409E0A9300F2EE8099460A9A039B9A4238
:1030C00080F0B98194F84630152BF7D8DFE813F07B
:1030D0008A009F007D000D01510047001600A101EC
:1030E00047009B014700850147009B019402850032
:1030F000E200E200FC028D03290285000125D4E9EB
:1031000014329A4266D200950BAA08A92046FFF70E
:10311000A3FE41F20303984261D108F1080C634613
:103120000BAF0DF1440E3A4603CA72451860596060
:10313000174603F10803F6D11068186098F80030BC
:10314000604643F0010388F80030FFF741FB002898
:10315000D5D1152341F20C0084F846303FE00DF143
:103160002C0BD4E91452AA420A99C0F056810123CB
:103170004AE00125636D072B9FD8082300950BAA11
:1031800008A92046FFF768FE41F20303984226D1C2
:1031900098F8003043F0020388F800300B9BC8F821
:1031A0000430236D083BC8F824300C9B0593002B9A
:1031B00040F09B80052284F8462094F84520636601
:1031C00042F0010284F84520D4E70125636D072B06
:1031D00040F29E8084F846506FE741F2070037B016
:1031E000BDE8F08F06AA08A92046FFF791FE41F23C
:1031F00003039842F3D1079B069A23650023636576
:10320000AA4B9A4271D1022384F8463055E706AAA8
:1032100008A92046FFF77CFE41F203039842DED165
:1032200094F84420069B22B1A14A93425DD10E231B
:10323000EAE7A04A93424DD037D89F4A934258D0EC
:103240002BD802F1D74202F5D81202F6F832934297
:103250003CD006A8FFF796FA00284CD01423069815
:1032600084F84630C4F88C00FFF794FA94F84230A2
:10327000814698067FF521AFB9F1000F3FF41DAFED
:10328000D9F80430002B3FF418AF204698470028A7
:103290003FF413AF41F20100A1E7884A934217D0EF
:1032A000874A9342D5D10423AEE7814A934215D091
:1032B00004D8844A9342CCD11323A5E7824A93428F
:1032C0000AD0824A9342C4D109239DE70B239BE78E
:1032D000062399E7072397E70D2395E7FFF766FA9B
:1032E00018B994F84330002BA1D0152384F8463048
:1032F000D0E7122388E7152341F2080084F846300E
:1033000041F2040394F84320002A18BF184666E7E8
:10331000082300950BAA08A92046FFF79DFD41F25E
:10332000030398427FF45BAF0B9B03F07F43B3F141
:10333000407F05D0152341F2090084F846304EE75E
:103340000C9BD90705930BD4FFF730FA00283FF404
:103350003DAF059BDA053FF539AF152384F84630BC
:1033600041F20A003BE701230DAA009308A90823B4
:103370002046FFF771FD41F2030398427FF42FAF1F
:1033800098F8003043F0040388F800300E9BC8F82A
:10339000283098F801305B071CD500204C4B606644
:1033A0000B93236DC4F8843094F8453043F0020346
:1033B00084F84530F5686DB1336804220BA9A8473D
:1033C0000822606E3368F5680DA91044A847636E43
:1033D000103363660C2384F84630636D072BC2D923
:1033E0006BE6042300950BAA08A92046FFF734FDDD
:1033F00041F2030398427FF4F2AE226D0B9B042A44
:10340000059301D923660125636D032BE9D90A23AE
:10341000FAE6002363660823F6E6099BAD1A94F8E2
:1034200040205B1A032D134407D9032B2AD808A97F
:103430002046FFF7F0FC0020D1E69D42F7D89D42E0
:1034400028BF1D460123032D88BF25F003050093E7
:103450005A462B4608A92046FFF7FEFC41F203031B
:1034600098427FF4BCAE94F84630082B13D1B7686D
:103470008FB133682A465946606EB847636E1D4463
:1034800065666EE6402D28BF4025D8E74FF0FF3235
:103490000BF805200135032DF8D90A2B1AD1334634
:1034A0002A4659462046FFF75DFD5AE6EB17A6036C
:1034B000FC0404FCF60808F6F30B0BF3F40A0AF418
:1034C000F50909F5F70A0AF7FD0303FDFE0101FE00
:1034D000EB17A65E052B18D198F801309F077FF5F2
:1034E00040AEF368002B3FF43CAE626E042A0AD86B
:1034F0005319062B07D90CAB9B1A1A68C4F8842001
:103500004FF0FF321A60F768B3E70C2B7FF429AE57
:1035100098F8013058077FF524AEF768002FA8D13E
:103520001FE694F84230990607D5D4F88C00FFF7CF
:1035300031F9814600283FF4ADAE4FF0010B3EE07B
:10354000002B57D0B9F1000F54D0D9F81030002B10
:1035500050D020469847DDE90953ED1A94F84030E1
:103560002B4498423FF663AFD4E91452AD1A402D74
:1035700028BF40259D4228BF1D46CDF800B02B46F0
:103580000BAA08A92046FFF767FC41F20303984203
:103590007FF425AE94F842309A0610D5B9F1000FA9
:1035A0003FF478AED9F80870002F3FF473AE33467D
:1035B0002A460BA92046B84700287FF410AED4E96C
:1035C000142194F84230914203F02003B8D3002B29
:1035D0003FF4CDADB9F1000F3FF4C9ADD9F80C30CF
:1035E000002B3FF4C4AD31462046984700283FF4F5
:1035F000BEADF4E50120AEE700230BAA009308A9B5
:1036000004232046FFF728FC41F2030398427FF48D
:10361000E6ADD4F88820964B9A4205D0152341F2A6
:10362000050084F84630DAE5FFF7C0F810B9012349
:1036300088F8033098F80330002B3ED094F84530DA
:103640009B0707D0F5682DB10422336804F184018B
:103650001046A847236E83B3736873B34FF0FF33EC
:1036600036AF47F8C43D04F1800904224946384684
:1036700000F0C0FA40B1FFF7A8F828B1D6E900354C
:10368000042249461044A84704F16805042229464B
:10369000384600F0AFFA80B17768FFF78FF83368EB
:1036A000142204F16C010830B8477768FFF786F8F8
:1036B0000422336829461044B847012388F80230B1
:1036C0000F2384F84630B6E694F81831002B7FF4C7
:1036D000F4AC636D032B10D801230BAA009308A947
:1036E00004232046FFF7B8FB41F2030398427FF41E
:1036F00076AD0B9BC4F89030DFE4432B1AD801233E
:103700000BAA009308A940232046FFF7A5FB41F22E
:10371000030398427FF463AD0BAD04F194021BAF39
:103720002B4603CBBB42106051601D4602F10802DC
:10373000F6D1C2E4472B4FF00103009317D80423BE
:103740000BAA08A92046FFF787FB41F20303984222
:103750007FF445AD0B9BC4F8D430DAF83820002A4A
:103760003FF4F7AC526C9A427FF6A7ACF1E44023E9
:103770000BAA08A92046FFF76FFB41F2030398420A
:103780007FF42DAD04F1D80C67460BAB1BAD1A4688
:1037900003CAAA42CCF80000CCF8041013460CF17E
:1037A000080CF4D12846FCF77DFE482204F1900174
:1037B0002846FCF781FE2846FCF780FEDAF8383010
:1037C000394603F124020092043304F1F80228463A
:1037D000FCF7F4FD28B1152341F2060084F84630C9
:1037E000FDE4012384F818310EE594F84430002BF1
:1037F0007FF4BDAC00930BAA402308A92046FFF735
:103800002BFB41F2030398427FF4E9ACE06CFCF738
:1038100055FE94F8183173B104F1B403009304F128
:103820009403E06C13AA0BA9FCF7C8FDC8B10023F0
:1038300088F80330CFE7FEF7BDFF30B1DAF8383053
:1038400003F1240200920433EBE7E56CFFF71AF86A
:103850000746FFF72BF83B46009013AA0BA9284612
:10386000E2E7012388F8033084F844307FE400BFA6
:10387000E320BBDE31B10A4B5A68824205D80023EF
:10388000C1E9003340F201407047013053F8302065
:1038900003EBC0035B680A604B600020704700BF09
:1038A000343D000001221A707047000070B40D4CC6
:1038B0000E461146626882420DD9013004EBC00207
:1038C0005268F51895420AD854F830001A46304428
:1038D00070BCFEF79FBD40F2014070BC704740F2E3
:1038E0000240FAE7343D000030B504460D46A3B06F
:1038F00002AAD0F804128023D0F8FC01FFF7D6FF0B
:103900000095802302AA214604F12C00FFF7C2FB98
:10391000D4F80432C4F808028033C4F8043223B067
:1039200030BD1FB50023CDE90033CDE90213D0F837
:1039300008320446A3B9D0F80422D0F800329A42E3
:103940000ED26946FFF7D0FFD4F8080298B141F2D1
:10395000070240F20123904208BF184604B010BD90
:10396000A3785BB140F2022040F20323E278002A00
:1039700018BF1846F2E740F20120EFE740F20220BC
:10398000ECE7000070B50D46002186B006AB03F8E9
:10399000111D02931E4B04461646116028461C2238
:1039A000CDE90333059300F058F99DF8072062B97B
:1039B00094F87230142B08D0D4F808322BB9D4F80C
:1039C0000412D4F8003299421AD32378990744BFDD
:1039D000636833602378DB0709D504F1080304F139
:1039E000240153F8040B8B4245F8040BF9D162B95A
:1039F000237840F20640002B18BF002006B070BDAF
:103A000002A92046FFF770FFCFE70020F6E700BFCE
:103A1000A538000070B40D4C0E4611466268824213
:103A20000DD9013004EBC0025268F51895420AD84E
:103A300054F830001A46304470BCFEF7FABC40F22D
:103A4000014070BC704740F20240FAE7343D00008C
:103A5000074B5A68824207D9013003EBC002516814
:103A600053F83000FEF7FEBC40F20140704700BF43
:103A7000343D000010B5044660B14FF4803200239D
:103A8000C0E90023044B1A785B680272C360FEF73A
:103A9000B3FC206110BD00BF343D000037B50C46BB
:103AA000054611462046FFF745F948B969462846BC
:103AB000FFF7E0FE20B9019BC4F8FC51C4F80032C6
:103AC00003B030BD38B500F5C87204460D4620235A
:103AD00000F5A4712C30FFF797FAD4F808322BB90F
:103AE000D4F80422D4F800329A4203D3A07800B16B
:103AF000E07838BD29462046FFF7F6FEEDE70000E6
:103B000000B5ADF5097D4FF4037205A9FFF7C6FFB7
:103B100078B904238DF81530074BCDE901000390E7
:103B200001A905A80493FFF7CDFF0DF5097D5DF808
:103B300004FB0020F9E700BF1F2B000030B5ADF5F6
:103B4000097D0D460446FEF73DFE8368AB4203D374
:103B500000200DF5097D30BD4FF4037205A9204604
:103B6000FFF79CFF0028F3D102238DF81530054B99
:103B7000CDE90100039001A905A80493FFF7A2FF76
:103B8000E7E700BF1F2B000000B5ADF5097D4FF43E
:103B9000037205A9FFF782FF78B901238DF815306C
:103BA000074B0190CDE90230049001A905A8FFF769
:103BB00089FF0DF5097D5DF804FB0020F9E700BFE2
:103BC000F52A000000234FF0FF32036001238B42EF
:103BD00001D30020704740F823200133F7E7036842
:103BE00040F204500133012B98BF0020704740F28F
:103BF0000250704730B50024A24201D1002007E0F6
:103C0000035D01340D1915F8015CAB42F4D0581B6B
:103C100030BD431E0A4410B5914200D110BD11F8C9
:103C2000014B03F8014FF7E7884201EB020310B59F
:103C300007D8421E99420AD011F8014B02F8014FF1
:103C4000F8E78342F5D98118D21AD34200D110BDCA
:103C500013F8014D01F8014DF7E702440346934282
:103C600000D1704703F8011BF9E70000F8B500BF69
:103C7000F8BC08BC9E467047F8B500BFF8BC08BC4D
:103C80009E46704707B0CD5E0100000003000A01A8
:103C9000783E0000004000000000080070000100B5
:103CA000190200001D020000612B0000352D0000EC
:103CB000672D0000103E000013B779FAC925DDB763
:103CC000ADF3CFE0F1B614B8010100000000000030
:103CD000743E00004000000003000A0100000000E4
:103CE00000000000000000000000000000000000D4
:103CF00000000000000000000300000200000000BF
:103D0000000000010402010302010302010300009C
:103D1000040100000302000001020300280000006B
:103D2000280000000020000000000800443D0000C2
:103D300004000000010000000100000000800400F9
:103D40000000030045465233320067452301EFCDA2
:103D5000AB8998BADCFE10325476C3D2E1F0000091
:103D600000000000000000000000C1059ED8367C65
:103D7000D5073070DD17F70E5939FFC00B31685881
:103D8000151164F98FA7BEFA4FA46A09E667BB67ED
:103D9000AE853C6EF372A54FF53A510E527F9B05EE
:103DA000688C1F83D9AB5BE0CD1980000000000058
:103DB0000000000000000000000000000000000003
:103DC00000000000000000000000000000000000F3
:103DD00000000000000000000000000000000000E3
:103DE000000000000000000000000000FD0707FDCB
:103DF000C9220000F9220000A12300009523000041
:103E0000B814B6F1E0CFF3ADB7DD25C9FA79B71331
:103E100000010000753A000075380000AD38000060
:103E2000153A0000513A0000DF3B0000C53B00009E
:103E3000EF3B00009D3A0000233900008539000067
:103E40000524000015240000332400006524000030
:043E5000000000006E
:103E5400C0EA2101C0EA210100F04902008000000B
:103E640091210000C921000065000000410000000C
:04000003000001D127
:00000001FF
