:020000040FE10A
:100000000F4880F308880F4800470000BD05E10F46
:10001000BD05E10FBD05E10FBD05E10FBD05E10F18
:10002000BD05E10FBD05E10FD805E10FBD05E10FED
:10003000BD05E10FBD05E10FBD05E10FBD05E10FF8
:10004000007C00207105E10F10B5054C237833B911
:10005000044B13B10448AFF300800123237010BD9B
:100060001001002000000000EC05E10F08B5034B73
:100070001BB103490348AFF3008008BD0000000036
:1000800014010020EC05E10F034AD2F8883043F454
:100090007003C2F88830704700ED00E00F4A104B43
:1000A000D969C90705D512B96FF002007047013A46
:1000B000F6E7002AF8D001221861DA60DB6913F054
:1000C00006000AD05A0706D413F0020F0CBF002016
:1000D0006FF0010070474FF0FF3070478096980036
:1000E00000000E4070B509B9002070BDAAB91D4CC2
:1000F000082550F82230A3611B4BE5600132E66908
:10010000F60705D513B96FF00200EEE7013BF6E7FD
:10011000002BF8D09142ECD1E6E7EFF3108572B6F0
:10012000104B00221026DC69240711D550F822401C
:100130009C6101329142DE60F5D105B962B60A4B8D
:10014000084AD169C9070AD5002BDCD0013BF8E782
:10015000DC6904F01904102C08BFDC60E3E7002B15
:10016000C2D1D0E700000E40809698002DE9F843F8
:100170009846194B0D46596818495B688B6843F0DF
:10018000010307468B6096084FF00009B14507D37D
:100190000020124A936823F001039360BDE8F883BE
:1001A00007EB89042046FFF779FF0028F6D1C4F356
:1001B0000A04C4F50064A408A6EB09039C4228BF06
:1001C0001C46424621462846FFF78CFF0028E0D116
:1001D000A14405EB8405D9E700300E4000000E4035
:1001E0001B4B5A685B681B4B9A6842F001029A608D
:1001F00001221861DA60DA69510706D59A6822F09F
:1002000001029A604FF0FF307047DA69920706D515
:100210009A6822F001029A606FF001007047022292
:10022000DA600D4A1946D86910F0010009D032B9D8
:100230008B6823F001038B606FF002007047013A76
:10024000F1E7002AF4D09A6822F001029A60704720
:1002500000300E4000000E40809698000023FFF70B
:1002600085BF000008B5094B1A68094B1A60094B95
:1002700040221A615A685203FCD400F079F8002831
:10028000FBD040F2022000F0ADF800BF04010020D6
:100290000001002000300E4098B5104C104BA360B8
:1002A00000AF00F0BFF80F4B5B68B3F5803F09D09B
:1002B00040F20923984202D0B0F5007F02D100F04D
:1002C00015F848B9084BA3601A6882F3088882F3CE
:1002D00009885B689847FEE798BD00BF00ED00E025
:1002E0000000E10F00500E400008E10FF8B51C4B74
:1002F0001A681069D568836AAB4201D20020F8BD44
:1003000005F560529A42F9D95B1BC618C758154BC0
:100310009F42F3D14FF0FF32F16800F00DF9124B1C
:1003200098420446EAD1114B1B68A3F17E62A2F504
:100330008432B2F5605F10D21A68BA420DD1B1684A
:100340009A68914209D84FF0FF32D968284600F0E8
:10035000F3F8001B18BF0120D1E70120CFE700BF51
:100360002800E10F07B0CD5EE320BBDE2808E10FD7
:10037000F8B5184B1B68D3E90347BB6A1B1BFD1874
:100380002646EA68A318B3421CD83946204600F036
:100390009BF8B0B1104B1B68A3F17E62A2F58432CA
:1003A000B2F5605F14D219680C4A914210D1D96835
:1003B0004FF0FF32204600F0BFF8094BC31A5842F5
:1003C0005841F8BD304600F074F806F50066D8E7ED
:1003D0000020F6E72800E10F2808E10F07B0CD5E06
:1003E000E320BBDE4FF000534FF20F025A800A4A5F
:1003F0001880136823F4E06343F480631360BFF351
:100400004F8F0649064BCA6802F4E0621343CB6083
:10041000BFF34F8F00BFFDE700500E4000ED00E03E
:100420000400FA054FF000534FF20F015A888A4238
:1004300001D1188870473AB91B88012B40F202207D
:1004400018BF4FF4007070474FF400707047000001
:10045000044B41F671321A649A6822F001029A60E4
:10046000704700BF00000E40034B9A6822F0010263
:100470009A6000221A64704700000E4007B50346D8
:100480009B0753BF6FEA01414FF6FF7343EA0141F7
:100490006FEA1141019120F00300FFF7D9FF042218
:1004A0000DEB0201FFF7DAFEFFF7DEFF03B05DF8A8
:1004B00004FB08B5FFF7CCFFFFF792FEFFF7D4FF70
:1004C000B0FA80F0400908BDF8B540EA02031446CE
:1004D000DA0705460E4601D50020F8BD0CB901200B
:1004E000FBE7830725D50988FFF7C8FF0028F3D16C
:1004F000023C032C05F1020506F102060FD924F097
:100500000307FFF7A5FF3A4631462846FFF7A6FE48
:10051000FFF7AAFF0028DFD13E443D44E41B002C36
:10052000DDD031882846FFF7A9FFB0FA80F04009F6
:10053000D3E7032CE3D8F4E710B50B4CD4F8B03074
:1005400043F04003C4F8B030084B01241C60014460
:100550009A605C601A46884201D1D86910BD10F8D3
:10056000014B9461F7E700BF00400E4000C001401E
:100570000B4880470B4880470B490C4A0C4B9A426A
:10058000BEBF51F8040B42F8040BF8E709490A4AC8
:1005900000209142BCBF41F8040BFAE7FFF762FE6E
:1005A0008900E10F9902E10FF005E10F0001002041
:1005B00010010020100100202C010020FEE700BFE8
:1005C000F8B500BFF8BC08BC9E467047F8B500BF40
:1005D000F8BC08BC9E467047AD1007B00100000093
:1005E000000006010008E10F00800000000000008C
:1005F000C0EA2101C0EA21016D00E10F4900E10FCD
:10080000007C00204D09E10F4909E10F9D09E10F2E
:100810004909E10F4909E10F4909E10F4909E10FD0
:100820004909E10F4909E10F103EE10F4909E10FC4
:100830004909E10F4909E10F4909E10F4909E10FB0
:1008400010B5054C237833B9044B13B10448AFF30A
:1008500000800123237010BD28010020000000004B
:10086000A83FE10F084B10B51BB108480849AFF38A
:1008700000800848036803B910BD074B002BFBD06C
:10088000BDE81040184700BF00000000A83FE10F7E
:100890002C010020240100200000000000487047C7
:1008A00000F049020D4AD2F8943003F00703032BFD
:1008B0000AD0042B03D0022B03D1094B02E0094BD1
:1008C00000E0094B186801E04FF40040D2F8003115
:1008D000C3F304230133B0FBF3F0704700400E4034
:1008E00004010020000100200C01002008B5FFF7E2
:1008F000D9FF054BD3F80831C3F308230133B0FB0C
:10090000F3F0024B186008BD00400E4008010020C3
:10091000014B1868704700BF04010020034AD2F859
:10092000883043F47003C2F88830704700ED00E06F
:100930004FF4004070474FF47A707047014B1868CD
:10094000704700BF00010020FEE7000008B5FFF778
:10095000E5FF00F095F80A4A0A4B0B498B4204D296
:1009600052F8041F43F8041BF7E7084B084A934268
:1009700003D2002243F8042BF8E700F015F800BF7B
:10098000A83FE10F000100202801002028010020DD
:10099000C84E002002F01CB802F06FB808B54FF442
:1009A000017003F017F800002C4B1A682C4B70B53F
:1009B0001A602C4A136843F4807313602A4B4FF477
:1009C00016721A60294A5A60294A1A674FF4F0725F
:1009D0009A6086B0274B01AA03F1100615461868E5
:1009E0005968144603C40833B3422246F7D11B8822
:1009F0002380284600F06AFC1120042100F08EFBC1
:100A000001210A46022000F003FB00210A460320D0
:100A100000F0FEFA184B40221A615A685203FCD4C7
:100A2000FFF7B8FF02F0D0FF02F024FA10B940F24D
:100A300001200DE0114B0093009B002B02DD009B79
:100A4000013BF8E740F20543984203D140F203200E
:100A500002F0C0FF4FF40170FAE700BF0C01002064
:100A60000801002000000E408C420E404A5D050047
:100A700028E21600FC3DE10F00300E4000350C006E
:100A800008B5184B5B685B0528D502F0C3FFA0F2E0
:100A9000022080B2072821D80123834013F0C90F18
:100AA0001CD0002304221268013205D14FF40270D9
:100AB000BDE8084002F081BF93B1002002F0F0FED3
:100AC0000028F3D0084A002393601846016881F398
:100AD000088881F3098840688746FEE70123E1E73B
:100AE00008BD00BF00500E4000ED00E00020704740
:100AF00010B50B4CD4F8B03043F04003C4F8B0301C
:100B0000084B01241C6001449A605C60884204D058
:100B1000044A10F8014B9461F8E7D86910BD00BF92
:100B200000400E4000C0014030B129B1002A40F21F
:100B3000016018BF0020704740F20160704710B597
:100B4000044602F06DF820460021BDE8104002F096
:100B50006DB802F0D9B8014602F0DAB870B50E4BA4
:100B60005B6800230D4C04EBC302CDB21679AE4294
:100B700003D154F83340A0420BD90133052BF1D1F6
:100B8000032205494B6823F0407343EA02634B603C
:100B900070BD5279F5E700BF00000E40583EE10FEE
:100BA00038B5074C41F67133256C2364FFF776FEA8
:100BB0000021FFF7D3FF0DB10023236438BD00BF30
:100BC00000000E400C4B984205D90C4B984204D9BA
:100BD0000222012303E0002200E00122134608491B
:100BE0000B600849D1F8003123F0807343EA0263B7
:100BF000C1F80031704700BF0048E8010090D00301
:100C00004000C84300400E40044B1B68002BFBD142
:100C1000034B5868C0F30140704700BFC800C6438B
:100C200000300E4038B5054C41F67133256C236415
:100C3000FFF794FF0DB10023236438BD00000E4080
:100C400000F00F000138072848D8DFE800F0040E54
:100C50001847232D4735244BD3F8943003F007036E
:100C6000023B022B3CD8214A12E01F4BD3F88030C4
:100C700003F00703013B042B34D81D4A08E01A4B4C
:100C8000D3F8843003F00703013B042B2AD8194A18
:100C9000D05C7047144BD3F8883003F00703013B56
:100CA000042B1FD8144AF3E70F4B1B6F13F0010FEF
:100CB00014BF0920072070470B4BD3F85C3103F0B9
:100CC0003003202B06D0302B06D0102B0CBF072072
:100CD00001207047042070470820704700207047AB
:100CE000052070470120704700400E40443EE10F50
:100CF000473EE10F4C3EE10F513EE10F10B5044677
:100D0000FFF79EFF1C4B9C4209D01C4B9C420AD013
:100D10001B4B9C420CD11B4BD3F8800006E0194BB7
:100D2000D3F8840002E0174BD3F8880000F00700E6
:100D3000013804281DD8DFE800F00B030F070B0073
:100D4000BDE81040FFF7FABDBDE81040FFF7F3BD66
:100D5000BDE81040FFF7ECBDFFF7C8FD094BD3F825
:100D60000021C2F30062013201239340B0FBF3F093
:100D700010BD002010BD00BF03001C0005002000B6
:100D800002001A0000400E4000F47810B0F5901FE9
:100D900008B558D021D8B0F5002F00F0838009D8CD
:100DA000B0F5003F44D0B0F5802F3BD0002840F094
:100DB000978077E0B0F5402F6DD0B0F5602F00F050
:100DC0008280B0F5202F40F08B80FFF76BFD454B04
:100DD000D3F81431C3F3042331E0B0F5E01F41D060
:100DE00011D8B0F5B01F3FD0B0F5D01F29D0B0F565
:100DF000A01F75D13C48FFF781FF3A4BD3F8202163
:100E000002F00F0242E0B0F5281F21D003D8B0F560
:100E1000001F18D064E0B0F5301F2ED0B0F5381F99
:100E200044D05DE0FFF73EFD2E4BD3F80C3104E0DB
:100E3000FFF738FD2B4BD3F80831C3F308230133F8
:100E400026E0294800E02948BDE80840FFF756BFE2
:100E50002548FFF753FF234BD3F82031C3F3011389
:100E6000D84008BD2248EFE72148FFF747FF1D4B58
:100E7000D3F82821C2F3011208E01D48FFF73EFF16
:100E8000184BD3F82821C2F30122043201239340E6
:100E9000B0FBF3F008BD1748FFF7D2FE072812D0C9
:100EA00009281DD1BDE80840FFF7FCBC1248FFF738
:100EB000C7FE072807D0082808D0042810D1BDE8AD
:100EC0000840FFF725BD0D4B186808BDFFF7EAFC89
:100ED000044BD3F80031C3F3042303FB000008BD27
:100EE000002008BD00400E4002001A00050020004E
:100EF00003001C0006000C0098002E0010010020CA
:100F00000138032842D8DFE800F0022B111EC1F39C
:100F100008011F4B1B68002BFBD11E4A136A23F4E8
:100F2000FF7323F0010319431162704701F07F0141
:100F3000194B1B68002BFBD1164A136923F07F0362
:100F400019431161704701F07F01144B1B68002B9E
:100F5000FBD1104A936923F07F03194391617047D5
:100F60000C4AD2F89030536A23F0300343F0100358
:100F70005362106B0A4B03400B43C1F3C31103319F
:100F80000F2928BF0F2143EA01711163704700BF89
:100F90006828C84300400E406028C8436428C843FE
:100FA00000F8FF0F0F4B5A6A12F0300F1A4606D0A6
:100FB000202907D0302902D009B10B4B04E04FF4AF
:100FC000400301E04FF40003D2F890101940994219
:100FD000FAD15B0243BF034BD3F8A000C0F38020DB
:100FE0000120704700400E40FFF3E17F02280AD144
:100FF00029B1064B4FF48060C3F8A800596612B1BE
:101000000220FFF7CFBF0120704700BF00400E4015
:10101000F8B506287BD8DFE800F009041733757AA5
:10102000100080264024062307252DE04FF400768B
:101030004FF480740823092526E04FF400464FF44E
:1010400080440E230F251FE0002950D030494B6A01
:1010500013F0300F0BD12F4BDB6B4B6ADB070AD53C
:101060004B6A23F0300343F010034B6203E0042487
:10107000022303250AE0042402230325012606E0B7
:101080000124022600232546002932D000262049CB
:101090000C662149194489000B68002BFCD0002AFA
:1010A00035D01D4B2B449F003B68002BFCD0022801
:1010B0002DD166B3164D696A11F0010104D02021CB
:1010C0000122FFF793FF01E0FFF76CFFD5F89C606A
:1010D000022000210122FFF79BFF0220C6F30A0134
:1010E000FFF70EFF2C663B68002BFCD0F8BD0826EE
:1010F0000223074A1666084A1A4492001368002B16
:10110000FCD1F8BD2026102404230525BCE7F8BD3A
:1011100000400E4000300E408004F210112870B5DF
:1011200006460C4601D0002511E0042904D1FFF742
:10113000EFFB054638B9F6E70529F4D1594B1D6890
:10114000594B9D42EFD92846002100F039F906F0AD
:101150000F06013E072E00F2A480DFE806F0049E91
:1011600040A2A06FA27A023C032C00F29A80DFE832
:1011700004F01102050B012003240DE04B48FFF79A
:1011800021FD0220044607E04848FFF71BFD01242B
:10119000032001E00020042401210A46FFF738FF64
:1011A000FFF7FEFC1DB1424B1B68002BFBD1414BEE
:1011B00041485C67FFF7E8FDFFF704FDFFF796FB8A
:1011C0000446FFF721FD01462046FFF72BFD002DC9
:1011D00067D128460121BDE8704000F0F1B8374DD5
:1011E000013C0A2C5DD8DFE804F026080F5C5C1691
:1011F0005C5C5C061F0004231EE0012100200A46FF
:10120000FFF706FF022317E0012001460246FFF721
:10121000FFFE012310E0FFF769FBFFF7D3FC284B2B
:1012200001221A60032307E0012106200A46FFF786
:10123000EFFE052300E000232B6070BD072C02D0D9
:10124000092C02D070BD002200E00122194B1A6760
:1012500070BD013C072C24D8DFE804F01423230DD3
:101260002323060403220EE001210A460420FFF78F
:10127000CFFE012207E001210A460220FFF7C8FE47
:10128000022200E000220B49D1F85C3123F0300348
:1012900043EA0213C1F85C3170BD0A4DA0E70A4D64
:1012A0009EE770BD0C010020002D31010148E801CE
:1012B000C800C64300400E400025080084400E4090
:1012C0000816C84380400E4088400E4038B504469A
:1012D0001120FFF7B5FC022000210122FFF798FE44
:1012E0001749227C4B6A23F00103022A08BF43F00E
:1012F00001034B62134B22781A60637AA28843EA97
:10130000C223CB620A6BA37A257A02F07F621A436A
:10131000E388E81C42EAC3220F2842EAC51328BF2B
:101320000F2043EA00730B63A37B627B1B0143EA3C
:101330000233E27B1343227B43EA02434B6338BD13
:1013400000400E40A004C843EFF3108072B670470F
:1013500000B962B670470000024B1B68002BFBD13E
:10136000704700BFC800C643F8B5134B0446D3F816
:1013700000310F46FFF796FA0646FFF7EDFF0F4BD9
:101380005A68C2F30142A2421D4614D0022C03D176
:1013900030462146FFF746FCC4F102021023934079
:1013A0002B611CB930462146FFF73CFC1FB1BDE85C
:1013B000F840FFF7D1BFF8BD00400E4000300E40AE
:1013C00038B50C4B0D46D3F8004128B9FFF76AFA3F
:1013D000C4F3042404FB0000074B1B7823B1074B24
:1013E000984201D8022000E000202946BDE838409C
:1013F000FFF7BABF00400E4044010020FF2C31012E
:101400000E4A0F4BD969C90702D58AB1013AF8E7EC
:1014100072B101221861DA60DB6913F006000AD0AC
:101420005A0707D413F0020F0CBF0020FE2002E081
:10143000FD2000E0FF2040B2704700BF809698007A
:1014400000000E4030B509B9002037E092B91C4BBE
:1014500050F822409C610824DC601A4B0132184C81
:10146000E469E50702D543B3013BF8E72BB38A42B1
:10147000EDD1E9E7EFF3108572B60022104BDC697D
:10148000240706D4DC6904F01904102C08BFDC60C2
:10149000F4E750F822409C61013210248A42DC605B
:1014A000ECD105B962B6074B054AD269D20702D51D
:1014B0001BB1013BF8E7002BC6D1FD2040B230BD87
:1014C00000000E40809698002DE9F8431F46194B06
:1014D0008846596818495B688B6843F001030646E3
:1014E0008B6095084FF00009A94519D206EB8904D5
:1014F0002046FFF785FFC8B9C4F30A04C4F50064A9
:10150000A408C9EB05039C4228BF1C46404621465F
:101510003A46FFF797FF20B9A14408EB8408E3E7B8
:101520000020054A936823F00103936040B2BDE8B0
:10153000F88300BF00300E4000000E401A4B5A687E
:101540005B681A4B9A6842F001029A6001221861A6
:10155000DA60DA69510705D59A6822F001029A60CB
:10156000FF201FE0DA69920705D59A6822F0010290
:101570009A60FE2016E00222DA600D4A0B4BD86911
:1015800010F00100194602D012B1013AF6E72AB96B
:101590008B6823F001038B60FD2003E09A6822F042
:1015A00001029A6040B2704700300E4000000E40C9
:1015B000809698000023FFF787BF826C531EB3F517
:1015C000887FF0B523D8436A076B4569D0F828E0D7
:1015D000866BC46AC91A914228BF11462FB9C768E1
:1015E000C4EB070C8C4598BF07630C44521AC462C5
:1015F000826419448B4209D0B34234BF7246002240
:101600009C1B2A44125DEA540133F3E74362F0BDA8
:101610002DE9F04F91B0044607910D92236B06938C
:101620004BB9E26AE36807999B1A626A891A994280
:1016300001D9134400E0079B0893A36B0093E36B6D
:101640000293636C0393A3682169D4F83490D4F8AF
:1016500040A0D4F824B0E569012202FA03F3013B6B
:101660000E9363689A40531E0F9323680C9363692B
:101670000493A36A0593E36A01930020A269236A95
:101680000B9001980E9F0740B5F1807F07EB091C76
:1016900038BF107831F81CE03CBF2D0240EA03232C
:1016A0004FEAD5200EFB00F038BF0132834280F0B4
:1016B000B680CEF500650EEB551E019D21F81CE0AD
:1016C00001F66C6E0DB9069DC5B1019D0F9F2F40AF
:1016D0000C9DAF40BBF1000F02D1059D013D01E023
:1016E0000BF1FF35049E755D0C9EC6F1080C45FAA2
:1016F0000CF52F444FF4C06505FB07EE019DB9F1D1
:10170000060F05F10105019533D8B9F1030F94BF18
:10171000C9EB0909A9F103090125B0F1807F38BFA0
:1017200092F800C03EF815703CBF00024CEA03235B
:101730004FEAD02C07FB0CFC38BF013263450EEB9F
:10174000450835BFC7F500606D0007EB5017A7EBE4
:10175000571737BF6D000135A8F80070604622BFEB
:10176000CCEB0000CCEB0303A8F80070FF2DD4D91C
:101770004EE0009F059E009DBB4528BF00263746D2
:10178000049EC5EB0B053544B9F10A0FED5D0995D3
:1017900034BF03250625C5EB09094FF4807C0125DC
:1017A000099E7600099605EB0C070CEA0606B0F1D7
:1017B000807F374438BF92F800800A9638BF000215
:1017C0000EEB47063EF8177038BF48EA03234FEA8E
:1017D000D02807FB08F838BF013243450AD2C7F5C5
:1017E000006007EB50170A9837802CEA000C6D0058
:1017F00040460BE0A7EB571737800A9E6D00C8EBF9
:101800000000C8EB030301350CEA060CFF2DC7D915
:10181000049E06F80B5005460BF1010B25E3AEEBD9
:101820005E1E2D1A21F81CE0B5F1807F09F1C00879
:10183000A3EB000338BF107831F818C03CBF2D026D
:1018400040EA03234FEAD5200CFB00F038BF0132F9
:1018500083424FEA480E12D2CCF500650CEB551CC2
:10186000039D0A95009DCDF80CA021F818C0DDF865
:1018700008A0029509F10C0901F2646ECDE02D1A61
:101880001B1A0698ACEB5C1C21F818C018B901981B
:10189000002800F02E83B5F1807F0EF1180838BFC4
:1018A000107831F808C03CBF2D0240EA03234FEA0C
:1018B000D5200CFB00F038BF0132834249D2CCF571
:1018C00000650CEB551C21F808C009F10F0CB0F1B4
:1018D000807F07EB0C1C38BF157831F81CE03CBF4B
:1018E000000245EA03234FEAD0250EFB05F538BF79
:1018F0000132AB4221D2009F059ECEF50060BB4570
:1019000028BF00260EEB501E009821F81CE0374639
:10191000049EC0EB0B003044B9F1070FC05D06F820
:101920000B00019800F101000BF1010B019034BF95
:101930004FF009094FF00B0997E2AEEB5E1E029ED5
:1019400021F81CE0401B5B1B5546DDF800A000960B
:1019500023E0ACEB5C1C2D1A21F808C0B5F1807FA8
:101960000EF13008A3EB000338BF107831F808C03F
:101970003CBF2D0240EA03234FEAD5200CFB00F0C8
:1019800038BF013283420AD2CCF500650CEB551CFE
:1019900021F808C05546DDF808A002952CE0ACEB14
:1019A0005C1C2D1A21F808C0B5F1807F0EF1480E9D
:1019B000A3EB000338BF107831F80EC03CBF2D02F6
:1019C00040EA03234FEAD5200CFB00F038BF013278
:1019D000834239BFCCF500650CEB551CACEB5C1CAD
:1019E0001B1A31BF21F80EC0281A21F80EC0554627
:1019F00024BFDDF80CA00395039D0A95B9F1070FEC
:101A0000029DCDF808A0DDF800A0039534BF4FF08B
:101A100008094FF00B0901F6682EB0F1807F38BF3E
:101A20001578BEF800603CBF000245EA03234FEA88
:101A3000D02506FB05F538BF0132AB420DD2C6F505
:101A4000006006EB5016AEF800600EEB0716043689
:101A50004FF0000E4FF0080831E0401BA6EB561681
:101A6000B0F1807FAEF80060A3EB050338BF1578B6
:101A7000BEF802603CBF000245EA03234FEAD025CE
:101A800006FB05F538BF0132AB420CD2C6F500604B
:101A900006EB5016AEF802600EEB071606F58276DE
:101AA0004FF0080ED6E7A6EB5616AEF802605B1BA9
:101AB0000EF50176451B4FF0100E4FF48078012093
:101AC000B5F1807F38BF92F800C006EB400738BF01
:101AD0002D02009736F8107038BF4CEA03234FEA06
:101AE000D52C07FB0CFC38BF0132634508D2C7F583
:101AF000006507EB5517009D40002F8065460AE002
:101B0000CCEB0505CCEB0303A7EB571C009F400073
:101B1000A7F800C001304045D2D3C8EB0E0E704488
:101B2000B9F10B0F099040F25A8103289ABF4FEA8E
:101B3000C01E0EF5587E4FF49C6E0126B5F1807FD5
:101B40000EEB460C38BF177831F80C003CBF2D0265
:101B500047EA03234FEAD52700FB07F738BF0132D6
:101B6000BB4235BFC0F50065760000EB5510A0EB19
:101B7000501037BF7600013621F80C003D4622BFD9
:101B8000ED1BDB1B21F80C003F2ED7D9A6F140003E
:101B9000032840F2138100F0010C0D284FEA500792
:101BA0004CF0020C44D8013FC6F53B760CFA07F026
:101BB0000336064476004FF0010E0B96CDF800E098
:101BC0000B9EB5F1807F06EB4E0638BF92F8008081
:101BD00031F806C00A963CBF2D0248EA03234FEABB
:101BE000D5280CFB08F838BF013243450AD2CCF5A2
:101BF00000650CEB551C0A9D4FEA4E0E21F805C0FE
:101C000045460EE00A9EACEB5C1C21F806C0009E27
:101C10004FEA4E0EC8EB0505C8EB03030EF1010EAB
:101C20003043009E013F4FEA46060096C8D1C5E00A
:101C3000053FB5F1807F3EBF10782D0240EA0323B7
:101C40004FEA5505A3EB05034FEAE37000EB4C0C9C
:101C500038BF01322840013F0CF1010C0344E8D1A8
:101C60001646B5F1807F38BF3678B1F846763CBF6E
:101C70002D0246EA03234FEAD52607FB06F638BFB6
:101C80000132B34234BFC7F500659B1B4FEA0C100D
:101C900033BF07EB5517AE1BA7EB5717A1F84676D6
:101CA00001F2446E23BFA1F8467640F001004FF0E8
:101CB00003084FF00208B6F1807F38BF17783EF86E
:101CC00018C03CBF360247EA03234FEAD6270CFB75
:101CD00007F738BF0132BB424FEA48053BBFCCF59E
:101CE00000660CEB561CACEB5C1C2EF805C021BF4B
:101CF0002EF805C0DB1B4FEA4805F71B24BF013552
:101D000040F00200B7F1807F38BF16783EF815C06A
:101D10003CBF3F0246EA03234FEAD7260CFB06F6F8
:101D200038BF0132B3424FEA450839BFCCF50065F0
:101D30000CEB551CACEB5C1C2EF808C031BF2EF828
:101D400008C09B1B4FEA4508BE1B24BF08F10108D1
:101D500040F00400B6F1807F38BF15783EF8187067
:101D60003CBF360245EA03234FEAD62507FB05F5BB
:101D700038BF0132AB424FEA480C39BFC7F50066A5
:101D800007EB5617A7EB571740F0080029BF5B1B5E
:101D90002EF80C702EF80C70751B461C0ED109998C
:101DA00001F589710B91029900910A99CDF808A06B
:101DB000A9F10C09DDF80CA003915DE0461C00962A
:101DC000069E0EB9019E00E0069EB04216D2B9F101
:101DD000130F34BF4FF007094FF00A0907E00298CC
:101DE00000900A98CDF808A0DDF80CA00390089E9A
:101DF0000998B6EB0B0C00F1020002D1C4F824B034
:101E000077E0009E009F844528BF8446C6EB0B0800
:101E1000059ECCEB0000BB4528BF00260B90474633
:101E200005983744C01B019E84450498664401967A
:101E300058440BD8CBEB070700EB0C0EE34410F82B
:101E400007C000F801CB7045F9D10EE0E646049ECC
:101E500016F80780059E00F8018B0137B74208BFCE
:101E60000027BEF1010EF2D1E3440898834503D266
:101E70000D988242FFF405ACB5F1807F38BF117830
:101E8000C4F824B038BF41EA032323620B9BA36448
:101E9000019BE362009BA363029BE363039B636478
:101EA000236BC4F840A03CBF2D020132A261E56162
:101EB000C4F8349023B9E368019A9A4228BF236397
:101EC00020460799FFF779FB636A079A9342A36C50
:101ED00007D2A2690D998A4203D2B3F5897FFFF434
:101EE0009DABB3F5897F84BF4FF48973A364002051
:101EF00000E0012011B0BDE8F08F2DE9F0478468C3
:101F0000D0F82CE0D0F834C0C5690669036A01270F
:101F1000A740013F07EA0E0707EB0C14B5F1807FDD
:101F20000A4436F8148007D2914280F0EE810C7892
:101F30002D0244EA03230131EC0A08FB04F4A34216
:101F400078D2056B06F66C6615B9BEF1000F1AD093
:101F5000456807684FF0010808FA05F5013D05EAF4
:101F60000E0E456AD0F814800EFA07FE05B9856A90
:101F7000013DC7F1080718F805503D41AE444FF444
:101F8000C06505FB0E66BCF1060F1AD80120B4F13E
:101F9000807F36F8105007D2914280F0B6810F78DA
:101FA000240247EA03230131E70A7D43AB424FEAAB
:101FB000400029BF01302C46641B5B1BFF28E6D97B
:101FC00036E0476A856BD0F814C0AF4234BF806AF0
:101FD0000020C5EB070E60444FF4807710F80EE048
:101FE00001204FEA4E0E07EA0E0C3D186544B4F18D
:101FF000807F36F8155008D2914280F0868191F8A2
:102000000080240248EA032301314FEAD42805FB6B
:1020100008F5AB424FEA40002DBF013027EA0C071C
:102020002C46641B24BF5B1B07EA0C07FF28D8D98A
:1020300001205FE1C4EB050E0CF1C000BEF1807F12
:10204000A3EB04034FEA400836F8105008D291423F
:1020500080F05B8108784FEA0E2E40EA03230131BD
:102060004FEADE204543AB4205D206F2646E022001
:102070004FF0000868E0C5EB0E0406EB0800B4F171
:10208000807FC5EB030E058B07D2914280F03D8126
:102090000B78240243EA0E2E0131E30A5D43AE457C
:1020A00022D20CF10F0C07EB0C1CB5F1807F36F837
:1020B0001C0007D2914280F028810B782D0243EA60
:1020C0000E2E0131EB0A5843864509D2B0F1807FCC
:1020D00080F01881914234BF03200020BDE8F087D2
:1020E0002D1AC0EB0E032AE0641BB4F1807FC5EB10
:1020F0000E03B0F830E007D2914280F006810D78EF
:10210000240245EA03230131E50A0EFB05F5AB4243
:1021100015D3641BB4F1807FA3EB0503B0F84850DE
:1021200007D2914280F0F1800878240240EA03232C
:102130000131E00A4543AB4224BF5B1B651B06F639
:10214000682E03204FF00C08B5F1807FBEF800C068
:1021500007D2914280F0D9800C782D0244EA032303
:102160000131EC0A0CFB04F4A34206D20EEB071774
:10217000043700254FF0080921E02D1BB5F1807FC1
:10218000A3EB0403BEF802C007D2914280F0BD80E9
:102190000C782D0244EA03230131EC0A0CFB04F411
:1021A000A34205D20EEB071707F582770825E1E772
:1021B0001B1B0EF501772C1B4FF4807910254FF077
:1021C000010CB4F1807F37F81CE008D2914280F016
:1021D0009C8091F800A024024AEA032301314FEACF
:1021E000D42A0EFB0AFE73454FEA4C0C29BF0CF1B2
:1021F000010C7446CEEB0404CEEB0303CC45E0D3D4
:10220000B8F1030F76D8C9EB050505EB0C07032FD2
:102210009ABFFF0107F558774FF49C6701256D00C1
:1022200005EB070EB4F1807F36F80EE007D291423D
:102230006BD291F800C024024CEA032301314FEA2B
:10224000D42C0EFB0CFE734529BF01357446CEEB32
:102250000404CEEB03033F2DE1D9A5F1400EBEF1FE
:10226000030F47D9BEF10D0F4FEA5E070DD80EF0F0
:10227000010E013FC5F53B754EF0020E03350EFA17
:1022800007FE754406EB450616E0053FB4F1807F76
:1022900006D2914239D20D78240245EA0323013156
:1022A00064081D1BED0F013D2540013FA3EB050315
:1022B000ECD106F2446604270125B4F1807F36F89C
:1022C00015E007D2914220D291F800C024024CEAD6
:1022D000032301314FEAD42C0EFB0CFE73454FEA69
:1022E000450531BF7446CEEB0404CEEB0303013544
:1022F000013FE2D1B4F1807F08D2914228BF002093
:10230000BDE8F0870320BDE8F0870020BDE8F08736
:10231000002301224362C26483648365C362036352
:10232000026570472DE9F04F85B09846DDF83C9086
:102330009DF83830D8F8006001930027C8F8007085
:1023400004468B461546FFF738F989F80070A36CF0
:10235000B3F5897F00F0E780E36C53B3A36D7EB1E2
:10236000042B0DD85A1CA265234415F8012B83F8C1
:102370005C20D8F800300133C8F80030013EEDE7AA
:10238000042B67D994F85C1039BB94F85E3094F84C
:102390005D20E1641B0443EA026394F86020A165B8
:1023A000134394F85F2043EA022323624FF0FF3384
:1023B000E361636A5B4512D3A36C002B40F0BE80DF
:1023C000206A002840F0C080042382E0002B4AD01D
:1023D000022848D0022389F800300120B9E0002308
:1023E000226DCAB194E8060011444FF440728A404D
:1023F000206902F236720021914205D24FF48067C3
:1024000020F811700131F7E7012262642264E2636F
:10241000A263002262632265A26D1AB1691EB01820
:1024200017463AE0132E00D9CBB120462946324652
:102430000293FFF762FD029B0028C7D1324604F1E8
:102440005C00294601F0A0FCA665D8F800301E44C7
:10245000C8F80060032389F80030002079E0A6F175
:1024600014022A4400E02A46A56120465946FFF797
:10247000CFF80028B1D1A369D8F800205D1B2A4409
:10248000C8F80020761B4CE087420AD0013704EBE5
:10249000070E11F801CF8EF85BC0132FC2EB070AAD
:1024A000F2D9132FA76504F15C0C00D9C3B16146C2
:1024B00020463A460393CDF808C0FFF71EFDDDF82D
:1024C00008C0039B40B9D8F800705744C8F80070A2
:1024D000032389F800303CE013B102287FF47AAF7F
:1024E000C4F818C0204659466246CDF808C0FFF728
:1024F0008FF800287FF471AFA369DDF808C0CCEB3A
:10250000030C674518D3CCEB0707BA4514D3D8F8AA
:102510000030C7EB0A073B44C8F80030F61BEB1944
:10252000A0651D4613E7206A10B9012389F8003021
:10253000003018BF01200CE00B200AE0019B002BAB
:102540007FF448AF022386E7019B002BFAD00123DA
:1025500046E705B0BDE8F08F2DE9F04F89B09A4607
:10256000DDF848809DF84C300493D8F80030039390
:1025700000231468136006468B461746C8F80030DF
:10258000039BB16A0793736A8B4204BF0023736293
:10259000D6F82490C9EB01039C4294BF049B00230E
:1025A0000093149B019398BF04EB0901524607ABBB
:1025B0003046FFF7B7FE079AD8F80010039B059046
:1025C0009B1A92440A44C8F80020756A7169039303
:1025D000C9EB050558462A46494401F0D5FB3A683F
:1025E000059B2A44AB44641B3A6023B92DB1002CEF
:1025F000C6D1204602E0184600E0284609B0BDE8F2
:10260000F08F10B504464B680846216998470023AF
:10261000236110BD70B5164691E80C004FF440746C
:1026200013449C400369054604F2367413B1436DAC
:102630009C420ED028463146FFF7E3FF3368304610
:1026400061009847002828616C650CBF02200020BB
:1026500070BD002070BD38B504460D46FFF7D1FFB0
:102660006B686169284698470023636138BD042A76
:1026700001D804207047CB788A781B0443EA0223F0
:102680004A7813430A7943EA0263B3F5805F38BF9F
:102690004FF48053C3600A78E02AEAD80923B2FBDA
:1026A000F3F303EBC301521AD2B20260DBB205228C
:1026B000B3FBF2F2D1B202EB82029B1ADBB2816071
:1026C0004360002070470000F0B585B004466846BE
:1026D0001F466E46FFF7CBFF002833D120466946E0
:1026E0003A46FFF797FF68BB039A174DB2F1804F48
:1026F00006D2164B40F6FF71AA4294BF0D461D4606
:10270000AB1823EA05056169954238BF154611B13A
:10271000A36A9D4210D07B683846984700236361C6
:102720003B68384629469847606128B920463946B3
:10273000FFF767FF022005E096E80F00A56284E836
:102740000F00002005B0F0BDFFFF3F00FFFF0F00AE
:102750000A4B186830B9B1F5205F0DD801221A6014
:1027600007487047012806D1B1F5005F03D802225F
:102770001A60044870470020704700BFB806002068
:10278000C4060020C82E002031B1044A1368002B73
:10279000C4BF03F1FF331360704700BFB8060020C9
:1027A0002DE9F04F8BB0022382468B4617468DF8F9
:1027B0001F3000249DF81F30022B25D1DFF8CC807C
:1027C000DFF8CC90D8F800302D492E48C3F5407280
:1027D0000892D9F80020099209AA8DE884000DF129
:1027E0001F020292194408AA274BFFF7B5FE28B131
:1027F000012F10D19DF81F30022B0CD19DF81F30F6
:102800006BB941F2023408E03FB141F20230012BD2
:1028100008BF204630E041F2033420462CE0D8F8CF
:102820000030089DDFF858C0CDF814C01D4425F0D5
:1028300003066146504632465B4600F0C3FBB54294
:102840000446A5EB0605DDF814C004D060468119E6
:102850002A4601F0A4FA0999C8F80050D9F80050A6
:102860008D42A5EB010504D907482A46014401F031
:1028700096FAC9F800509DE70BB0BDE8F08F00BF95
:10288000480100204806002048040020BC06002023
:10289000C006002008B500217022064801F09AFA0F
:1028A000054B01221A70054B00201860044B18607C
:1028B00008BD00BF48060020C42E0020BC06002032
:1028C000C00600202DE9F047824658680F4614469E
:1028D0009946002839D01E4B1D787DB100221A7010
:1028E00051F8043BCAF860301A481B4B0522FFF729
:1028F000EBFE40BB1748FFF70BFD1125174E336861
:10290000641BC3F500739C42B0460DD8D8F8006034
:102910001348224630447919344401F035FAC8F896
:1029200000400020BDE8F087504649460022FFF7EE
:1029300037FF50B93368C3F500739C42E6D941F2C2
:102940000430BDE8F08741F20530BDE8F08700BFF4
:10295000C42E00204806002014010020C0060020DC
:1029600048040020436D002B0CBF1120012070474C
:102970004A6838B505460C46E2B10122FFF710FF60
:10298000C8B90D4B1A682AB90C480D49FFF763FE08
:10299000002038BD032A04D80A4BFF21D15401324C
:1029A000F8E7284607490422234600F00BFB0028DD
:1029B000EAD038BD104638BDBC06002048060020CD
:1029C000140100204801002000487047803EE10FBC
:1029D00000207047024BD86900F00100704700BF2B
:1029E00000000E4008B503461044B0F5002F02D990
:1029F00040F2024008BD0846194601F0C5F9002022
:102A000008BD8318B3F5002F10B502D940F202407B
:102A100010BD03461C1A944206D253F8044B0134ED
:102A2000F8D040F2034010BD00F05AFE002840F2FA
:102A3000024018BF002010BD38B5C1F30A03044698
:102A4000C3B9C0F30A03ABB90D18B5F5002F04D90B
:102A500040F2024038BD0028FAD0204604F5006458
:102A600000F033FEA542F6D1002840F2024018BF24
:102A7000002038BD40F2044038BD002070470000FF
:102A8000024B034801221A60704700BF0016C8437A
:102A900000000F400A4B984204D003F5806398422F
:102AA00002D07047002200E00122064B03EBC20374
:102AB0005A68054B13449B0000221A60704700BF00
:102AC00000000F40B43EE10F8005F2108A68CB6829
:102AD00030B50D684C6805600460026003600D69E4
:102AE0004C698A69CB6905600460026003600D6A05
:102AF0004C6A8A6ACB6A05600460026003600D6BF1
:102B00004C6B8A6BCB6B056004600260036030BD68
:102B10002DE9F04790B00546894690461F46FFF7DD
:102B2000AFFF044627B1012F73D10423036000E0F7
:102B3000076000276760E764636823F440636360AD
:102B400027636763FEF700FC6A68A968EB682E6874
:102B5000C4F80461C4F80421C4F80411C4F80431B1
:102B6000EB696A69A9692E69C4F80461C4F8042193
:102B7000C4F80411C4F80431FEF7EAFB264B2365C0
:102B800047454E4626D016F0030F06F1400912D0F5
:102B90006A4630687168134603C308364E451A46C4
:102BA000F7D1FEF7D1FB6946064604F5D270FFF770
:102BB0008DFF304608E0FEF7C7FB3146824604F53C
:102BC000D270FFF783FF5046FEF7C2FB134B23651D
:102BD0000137D5E7FEF7B8FBD4F80061D4F800114F
:102BE000D4F80021D4F80031EB602E606960AA604F
:102BF000D4F80061D4F80011D4F80021D4F80031E1
:102C0000EB612E616961AA61FEF7A2FB2046FFF726
:102C100041FF10B0BDE8F087888AC801070D810127
:102C200018B100216C2201F0D5B87047002330B5EF
:102C30000362436281B1104C012380F8683004F1D3
:102C400020050346224603CAAA421860596014466A
:102C500003F10803F6D130BD084C80F86810034634
:102C600004F12005224603CAAA421860596014469E
:102C700003F10803F6D130BDC43EE10F243FE10F5C
:102C800001221346FFF744BF036A2DE9F04103F028
:102C90003F051344934203623CBF436A0133064637
:102CA0000F46144638BF436295B1C5F1400842450E
:102CB0000ED305F128004246304401F065F8304655
:102CC00006F12801FFF7DCFF4744C8EB04040025A8
:102CD0003F2C0DD94FEA94183946424630464FEA08
:102CE00088180123FFF714FF4744C8EB0404EFE7FB
:102CF00044B105F12800304439462246BDE8F04190
:102D000001F042B8BDE8F0810AB1FFF7BDBF7047DE
:102D100037B5026A0D46416A530F43EAC1030446C0
:102D2000180ED1008DF80000180C02F03F028DF84B
:102D300001008DF80330180A0B0E372A8DF8043085
:102D40004FEA114394BFC2F13802C2F178028DF804
:102D500002008DF805308DF807100B0A20460F4948
:102D60008DF80630FFF7D0FF204608226946FFF7AE
:102D70008BFF94F868002A460028A2EB050314BFD5
:102D80001C2120218B4206D29B0854F823301BBA09
:102D900042F8043BF0E703B030BD00BFE43EE10F72
:102DA0000068024BC31A584258417047FD0707FD9F
:102DB000034B044A90420CBF18460020704700BFE6
:102DC000443FE10FFD0707FD0020704700207047DA
:102DD000014B1B68186970472808E10F044B054A2E
:102DE0001B68196891420CBF18690020704700BF2A
:102DF0002800E10FAD1007B000B5DFB00020694634
:102E00004FF4BC7200F02EFF6846002100F06FFE08
:102E100040F201239842F7D040F20323984202D0B7
:102E200040F2054020E09DF8003093B19DF801305C
:102E3000002BF5D00E4B01991B689B68994208D96D
:102E40005A9800F041FF0028EAD040F2092000F033
:102E5000C1FD9DF80130002BE2D05A98039900F093
:102E600053FF0028DCD000205FB05DF804FB00BFFA
:102E70002808E10FFFF7C0BF70B5D1E90152AA429F
:102E800005D290F840302B449B1A402B10D90020DB
:102E900012E00A6890F84040D65C90F84120224445
:102EA00002F03F020133013486548B6080F84040C9
:102EB0008B689D42EDD8012070BD2DE9F041174689
:102EC000D1E90125521B90F840509DF818802A4402
:102ED0009A4204460E463FD2FFF7CEFF002845D166
:102EE000122384F8463041F20200BDE8F08194F8E4
:102EF0004120A25C7A5594F84120013202F03F0251
:102F000084F8412094F84020013A84F840200135AB
:102F100094F8402012B1AB42E9D11D46D6E9011226
:102F20008A4201D2AB4219D8AB42D9D1D4F8882019
:102F300029463846FDF7DCFDC4F88800B8F1000FDB
:102F400004D02A463946E06CFDF703FE636D1D444C
:102F5000656541F20300C8E70025D9E731688A5C5E
:102F60007A55B2680132B2600135D7E70020BCE77C
:102F70007FB500230093082315460DEB030204469A
:102F8000FFF79BFF41F203039842064613D1039AD1
:102F9000029B6A60094A2B60934208D0084A934218
:102FA00005D008220DEB0201E06CFDF7D2FD6B6845
:102FB000236500236365304604B070BDF70A0AF745
:102FC000FC0404FC2DE9F843044658680D461646F7
:102FD0001F46002843D08B0743D1FFF7F9FE216E2F
:102FE00000F1040C06EB0109CC451DD800F11C02D0
:102FF000914219D28C45634638BF0B46591AA3EB50
:103000000C00914594BFC3EB0909C3EB020905EB22
:10301000010868304A464146204400F0B5FE4A4661
:10302000FF21404600F0D6FEFFF7D8FE226E031DBA
:1030300093420AD3B1180830814206D39B1AEA584A
:10304000C4F880204FF0FF32EA50D7E9003832460A
:10305000206E2946C047236E1E4426660020BDE828
:10306000F88341F20200FAE7F8B504464FF0FF3664
:10307000154603F02003002280F84620A0F84020E7
:1030800080F8432080F8452080F84420C0E91822C9
:103090000F4680F84230C0F888601822FF2168305F
:1030A00000F098FEC4F88060C4F88460C4E912752A
:1030B000FFF78CFE18B117B941F20B00F8BDFFF70E
:1030C00083FE30B1002DF7D0E06CFDF738FD002015
:1030D000F4E7002DF8D12846F0E700002DE9F04F85
:1030E00099B09B46CDE90523229E002304468946DC
:1030F00007939846079A5A4580F0538194F84630D2
:10310000122BF8D8DFE813F04C0061003F0092006A
:103110001F01350013003B01350035013500350135
:103120001E024700BE00BE0085029F014700012528
:10313000D4E914329A422BD2009508AA05A9204658
:10314000FFF7BBFE41F20303984226D108AF09F115
:1031500008030DF1380C3A4603CA624518605960FD
:10316000174603F10803F6D11068186089F801507A
:10317000DEE70DF1200AD4E91452AA420799C0F003
:10318000028101231EE00125636D072B40F28A8036
:1031900084F84650AEE741F2070019B0BDE8F08F61
:1031A00003AA05A92046FFF7E3FE41F20303984274
:1031B000F3D1049B236500236365039AA94B9A42CC
:1031C00034D1022384F8463094E703AA05A92046A7
:1031D000FFF7CEFE41F203039842DED194F844207B
:1031E000039B22B1A04A934220D10C23EAE79F4AD5
:1031F000934227D00AD89E4A93421BD09D4A9342BD
:103200001AD09D4A93421FD10623DBE79B4A934283
:1032100016D09B4A934211D0934A934214D1FFF7A0
:10322000D3FD18B994F84330002BDED0122384F874
:10323000463027E00423C5E70723C3E70923C1E796
:103240000B23BFE71023BDE703A8FFF7A9FDE0B1FB
:103250001123039884F84630C4F88C00FFF7A8FDCA
:1032600094F842309D0680467FF544AF00283FF435
:1032700041AF4368002B3FF43DAF204698470028FC
:103280003FF438AF41F2010087E7122394F843205E
:1032900084F8463041F2080041F20403002A18BFC6
:1032A00018467AE70823009508AA05A92046FFF7E3
:1032B00004FE41F2030398427FF46FAF089B03F0D2
:1032C0007F43B3F1407F05D0122384F8463041F2AA
:1032D000090062E7099B0293D8070BD4FFF774FD3E
:1032E00000283FF451AF029BD9053FF54DAF1223A3
:1032F00084F8463041F20A004FE701250823009583
:1033000008AA05A92046FFF7D8FD41F20303984219
:103310007FF443AF5B4A5C481268089B1168C9F8A8
:1033200004308142099B89F80050029303D1D2688E
:103330009A427FF47BAF052384F84630012384F85A
:10334000453000236366636D072BD6D9D2E604238C
:10335000009508AA05A92046FFF7AFFD41F2030337
:1033600098427FF41AAF226D089B0293042A01D978
:1033700023660125636D032BE9D90A2322E7002385
:10338000636608231EE7069BAD1A94F840205B1A7B
:10339000032D134407D9032B2AD805A92046FFF78C
:1033A0006BFD0020F9E69D42F7D89D4228BF1D46DF
:1033B000032D88BF25F003050123009352462B46B9
:1033C00005A92046FFF779FD41F2030398427FF4F7
:1033D000E4AE94F84630082B13D1B7688FB1336848
:1033E000606E2A465146B847636E1D446566C2E664
:1033F000402D28BF4025D8E74FF0FF320AF80520BE
:103400000135032DF8D90A2B06D133462A465146F9
:103410002046FFF7D7FDAEE6052B7FF4ACAEF36890
:10342000002B3FF4A8AE626E042A0AD85319062B6B
:1034300007D909AB9B1A1A68C4F884204FF0FF32F1
:103440001A60F768CBE794F842309A0607D5D4F8AB
:103450008C00FFF7ADFC804600283FF413AF4FF01F
:10346000010A52E0EB17A603FC0404FCF70A0AF772
:10347000F50909F5F60808F6F40A0AF4FD0303FD58
:10348000FE0101FE2800E10FAD1007B0002B57D060
:10349000B8F1000F54D0D8F81030002B50D020468F
:1034A0009847DDE90653ED1A94F840302B449842D2
:1034B0003FF673AFD4E91452AD1A402D28BF402512
:1034C0009D4228BF1D462B46CDF800A008AA05A99D
:1034D0002046FFF7F2FC41F2030398427FF45DAE11
:1034E00094F842309B0610D5B8F1000F3FF4CAAEF5
:1034F000D8F80870002F3FF4C5AE33462A4608A915
:103500002046B84700287FF448AED4E9142194F847
:103510004230914203F02003B8D3002B3FF431AE88
:10352000B8F1000F3FF42DAED8F80C30002B3FF46B
:1035300028AE31462046984700283FF422AE2CE6BC
:103540000120AEE70023009308AA042305A9204622
:10355000FFF7B3FC41F2030398427FF41EAED4F8A8
:103560008820404B9A4205D0122384F8463041F21D
:10357000050012E6FFF728FC10B9012389F8033093
:1035800099F80330002B3DD094F845303BB1F568F5
:103590002DB10422336804F184011046A847236E3C
:1035A00083B3736873B318AF4FF0FF3347F8583DD8
:1035B00004F1800804224146384600F0D5FB40B1B2
:1035C000FFF70CFC28B10422D6E90035414610442F
:1035D000A84704F1680504222946384600F0C4FBD8
:1035E00080B17768FFF7F4FB3368142204F16C01B3
:1035F0000830B8477768FFF7EBFB042233682946A9
:103600001044B847012389F802300D2384F846306E
:10361000C7E694F84450002D7FF4B3AD40230095E5
:1036200008AA05A92046FFF748FC41F20303984287
:103630007FF4B3ADE06CFDF78EFA10AA08A9E06C38
:10364000FDF772FA38B1122389F8035041F20600EF
:1036500084F84630A1E5012389F8033084F844302A
:103660008FE500BFE320BBDE044B41F671321A64E4
:103670009A6822F001029A60704700BF00000E4075
:10368000034B9A6822F001029A6000221A64704784
:1036900000000E4007B503469B0753BF6FEA014188
:1036A0004FF6FF7343EA01416FEA1141019120F0A7
:1036B0000300FFF7D9FF04220DEB0201FDF77AFFAB
:1036C000FFF7DEFF03B05DF804FB08B5FFF7CCFFA2
:1036D000FDF734FFFFF7D4FFB0FA80F0400908BDD2
:1036E000F8B540EA02031446DA0705460E4601D54E
:1036F0000020F8BD0CB90120FBE7830725D5098818
:10370000FFF7C8FF0028F3D1023C032C05F10205A6
:1037100006F102060FD924F00307FFF7A5FF3A468A
:1037200031462846FDF746FFFFF7AAFF0028DFD104
:103730003E443D44E41B002CDDD031882846FFF791
:10374000A9FFB0FA80F04009D3E7032CE3D8F4E7EF
:10375000F0B51E4B446BA1B001AA054603F1100C55
:10376000174618685968164603C60833634532463B
:10377000F7D110223946204600F0F6FA18B96369ED
:10378000012B1ED1A469124B1B681B69A3421AD8D6
:10379000AC4218D3B4F5002F15D805A8FDF7CFF922
:1037A000621B294605A8FDF7D4F905A8FDF7D3F952
:1037B00004F12002214605A8FDF7B6F9B0FA80F021
:1037C000400921B0F0BD0020FBE700BF583FE10FEA
:1037D0002808E10F144B1B682DE9F04116461A69C1
:1037E0008242054688461DD85B698719BB4219D3BA
:1037F000C0F30A030BB9FFF768FF05F5006424F472
:10380000FF6424F00704A74206D832464146284602
:10381000BDE8F041FFF764BF2046FFF756FF04F50F
:103820000064F0E7BDE8F0812808E10F194B1B6840
:103830002DE9F041884616461968174A914226D16B
:103840001D69164B1B6805445A69AF19BA421ED34D
:1038500010B91869FFF739FFC5F30A0313B92846F1
:10386000FFF733FF05F5006424F4FF6424F0070438
:10387000A74206D8324641462846BDE8F041FFF748
:103880002FBF2046FFF721FF04F50064F0E7BDE8F5
:10389000F08100BF2800E10FAD1007B02808E10F4C
:1038A000F0B5284B85B06A46044603F1100716466A
:1038B00018685968154603C50833BB422A46F7D134
:1038C000236803F16043B3F5803F37D81E4B62682D
:1038D0001B681B69934231D8B2F5002F2ED8656B57
:1038E0004033AB4202D8B5F5002F06D9FDF7FEF8FC
:1038F00080F00100C0B205B0F0BDFDF7F7F828B1C7
:10390000204605B0BDE8F040FFF722BF1022314647
:10391000284600F029FA98B96B698BB1022BEFD1D8
:10392000AB69C4F1040119444FF0FF322046FDF7A2
:10393000DFF8064BC31A58425841DCE70020DAE7AB
:103940000120D8E7583FE10F2808E10FE320BBDE54
:10395000B1F5BC7F10B504460FD34FF4BC72002103
:1039600000F038FA04F1FC0204F1B40104F124007F
:103970000023BDE81040FFF777BB40F2052010BDE3
:1039800013B50446009101462430FFF7A7FBC4F8A5
:10399000740118B141F20703984209D1A3784BB1E1
:1039A000E27840F2032040F20223002A08BF1846C2
:1039B00002B010BD40F20120FAE74FF000534FF281
:1039C0000F0218805A8070474FF000534CF23C327F
:1039D0005A8070474FF000534FF20F025A800A4A44
:1039E0001880136823F4E06343F480631360BFF32B
:1039F0004F8F0649064BCA6802F4E0621343CB605E
:103A0000BFF34F8F00BFFDE700500E4000ED00E018
:103A10000400FA054FF000534FF20F015A888A4212
:103A200001D1188870473AB91B88012B40F2022057
:103A300018BF4FF4007070474FF4007070470000DB
:103A400031B10A4B5A68824205D80023C1E90033DC
:103A500040F201407047013053F830200A6003EB18
:103A6000C00300205B684B60704700BFA43EE10FBD
:103A700001221A707047000070B40D4C0E461146BA
:103A8000626882420DD9013004EBC002F518526819
:103A900095420AD854F830001A46304470BCFEF7FC
:103AA000A1BF40F2014070BC704740F20240FAE70B
:103AB000A43EE10F30B5A3B004460D4602AAD0F8EB
:103AC0007011D0F868018023FFF7D6FF009580239E
:103AD00002AA214604F12400FFF700FBD4F870315C
:103AE000C4F874018033C4F8703123B030BD1FB501
:103AF0000023CDE90033CDE90213D0F87431044638
:103B0000A3B9D0F87021D0F86C319A420ED2694630
:103B1000FFF7D0FFD4F8740198B141F2070240F2E8
:103B20000123904208BF184604B010BDA3785BB1D2
:103B3000E27840F2022040F20323002A18BF184620
:103B4000F2E740F20120EFE740F20220ECE700004C
:103B500070B586B006AB0D46002103F8111D029327
:103B60001D4B11600446164628461C22CDE903333E
:103B7000059300F02FF99DF8072062B994F86A3098
:103B8000112B08D0D4F874312BB9D4F87011D4F8B3
:103B90006C31994218D323780BB163683360637832
:103BA0004BB104F1080304F1240153F8040B45F868
:103BB000040B8B42F9D162B92388002B40F20640F6
:103BC00018BF002006B070BD02A92046FFF772FFA3
:103BD000D1E70020F6E700BF713AE10F70B40D4C59
:103BE0000E461146626882420DD9013004EBC002D4
:103BF000F518526895420AD854F830001A463044F5
:103C000070BCFEF7FEBE40F2014070BC704740F24F
:103C10000240FAE7A43EE10F074B5A68824207D9F7
:103C2000013003EBC00253F830005168FEF704BFC7
:103C300040F20140704700BFA43EE10F10B50446BA
:103C400060B14FF480320023C0E90023044B1A789E
:103C50005B680272C360FEF7B7FE206110BD00BF53
:103C6000A43EE10F37B50C46054611462046FFF746
:103C70006FFE48B969462846FFF7E2FE20B9019B6E
:103C8000C4F86851C4F86C3103B030BD38B500F1E8
:103C9000FC0204460D46202300F1B4012430FFF756
:103CA000E3F9D4F874312BB9D4F87021D4F86C311D
:103CB0009A4203D3A07800B1E07838BD2946204667
:103CC000FFF7F8FEEDE700000D4B00B51B689B68A1
:103CD0008B42E3B003D3002063B05DF804FB4FF4E4
:103CE000BC7204A9FFF7BEFF0028F4D1CDE90000A3
:103CF0000290044B0393694604A8FFF7C7FFEBE764
:103D00002808E10F2D38E10F00B5E3B04FF4BC7285
:103D100004A9FFF7A7FF58B9064B0090CDE9013081
:103D20000390694604A8FFF7B1FF63B05DF804FB98
:103D30000020FAE7D537E10F002303604FF0FF3290
:103D400001238B4201D30020704740F82320013328
:103D5000F7E703680133012B40F2045098BF0020BD
:103D6000704740F20250704710B50A44441E914219
:103D700008D014F8013F0878834201D0181A10BD0A
:103D80000131F4E7002010BD10B5431E0A449142F2
:103D900004D011F8014B03F8014FF8E710BD814240
:103DA00010B501EB020301D3421E0BE09842FBD297
:103DB0008118D21AD34204D013F8014D01F8014DF5
:103DC000F8E710BD994204D011F8014B02F8014FF9
:103DD000F8E710BD02440346934202D003F8011BEA
:103DE000FAE77047F8B500BFF8BC08BC9E467047BC
:103DF000F8B500BFF8BC08BC9E4670470000000044
:103E0000A00068010A200706020A0407000000005B
:103E100007B0CD5E0100000000000601D8370000A9
:103E20000000000000000800F00001009509E10F0B
:103E30009909E10FA138E10F5139E10F8139E10F03
:103E4000683FE10F0403020302010A0B0302060AA2
:103E50000B0302010A0B000040787D010000000006
:103E6000005A620200010000C0CF6A000200000098
:103E7000809FD50002010000406F40010202000057
:103E800001020300280000002800000000080000D4
:103E9000000008009C3EE10F02000000454652333E
:103EA00032000000010000000100000000A004003A
:103EB0000048030000000F400000000000040F4015
:103EC00001000000D89E05C107D57C3617DD703093
:103ED00039590EF7310BC0FF11155868A78FF964D7
:103EE000A44FFABE800000000000000000000000A7
:103EF00000000000000000000000000000000000C2
:103F000000000000000000000000000000000000B1
:103F100000000000000000000000000000000000A1
:103F20000000000067E6096A85AE67BB72F36E3C6D
:103F30003AF54FA57F520E518C68059BABD9831F74
:103F400019CDE05BFD0707FD9528E10FC528E10FBE
:103F50007129E10F6529E10F13B779FAC925DDB79A
:103F6000ADF3CFE0F1B614B8000100003D3CE10F25
:103F7000413AE10F793AE10FDD3BE10F193CE10FE6
:103F8000533DE10F393DE10F633DE10F653CE10F2A
:103F9000EF3AE10F513BE10FD529E10FE529E10FA0
:103FA000032AE10F392AE10F000000000080000021
:103FB00000F04902C0EA2101C0EA2101C0EA210162
:103FC0005127E10F8927E10F6508E10F4108E10F53
:043FD00000000000ED
:00000001FF
